:020000040800F2
:10000000980A00200101000805370008E1320008C5
:1000100001370008C5190008A14C000800000000C5
:1000200000000000000000000000000089480008F7
:10003000551F000800000000594400088D480008C2
:100040001B0100081B0100081B0100081B01000820
:100050001B0100081B0100081B0100081B01000810
:100060001B0100081B0100081B0100081B01000800
:100070001B0100081B0100081B0100081B010008F0
:100080001B0100081B0100081B0100081B010008E0
:100090001B0100081B0100081B0100081B010008D0
:1000A0001B0100081B0100081B0100081B010008C0
:1000B0001B0100081B0100081B0100081B010008B0
:1000C0001B0100081B0100081B0100081B010008A0
:1000D0001B010008894C00081B0100081B010008D7
:1000E0001B0100081B0100081B010008DFF80CD0F1
:1000F00000F076FB00480047AD4E0008980A00204B
:100100000648804706480047FEE7FEE7FEE7FEE7B1
:10011000FEE7FEE7FEE7FEE7FEE7FEE7A148000890
:10012000ED00000840EA01039B0703D009E008C97D
:10013000121F08C0042AFAD203E011F8013B00F8AC
:10014000013B521EF9D27047D2B201E000F8012BF8
:10015000491EFBD270470022F6E710B513460A4647
:1001600004461946FFF7F0FF204610BD421C10F868
:10017000011B0029FBD1801A7047F0B480EA01020C
:10018000D40F4200B2EB410F02D20246084611469C
:100190004A0042D0C30DDDB2C1F3C752AD1A202DC3
:1001A00035DAC1F3160141F4000204B15242C5F13F
:1001B000200602FA06F12A411044B3EBD05F23D0A7
:1001C000C4B1012DA0EBC35009DCF0BC4FF00042DC
:1001D00002EAC352DBB200F5000000F01AB9400099
:1001E00000F1807000EBC350A0F1807040EAD17044
:1001F000490009E0490841EAC071A0EBC35000F58D
:100200000000400800EBC350F0BC00F0F9B86142B8
:10021000012202EB4101001BF6E7F0BC704781F0C0
:100220000041AAE780F00040A7E780EA010210B58C
:1002300002F00043400022D04A001FD0010E01EB23
:100240001261C0F35600C2F3560240F4000042F4BB
:100250000002A0FB022000047F39140400D0401CDF
:1002600050EA124001D44000491EC2B20C0604EB11
:10027000D010401C4008802A02D003E0002010BDAE
:1002800020F00100002900DA0020184310BD30B42E
:1002900080EA010202F0004530F0004221F0004007
:1002A00013D090B1C30DD40DC2F31601C0F31600E4
:1002B000E41A41F4000140F400027D34914201D37C
:1002C000641C00E04900002C02DA30BC00207047BA
:1002D0004FF400000023914201D3891A03434008E0
:1002E0004FEA4101F7D151B1914202D14FF00041A3
:1002F00005E002D24FF0010101E06FF0010103EBD4
:10030000C450284430BC00F07BB8002801DBC0F1A9
:100310000040002901DBC1F10041814201D80120E8
:10032000704700207047002801DBC0F10040002921
:1003300001DBC1F10041814201D901207047002059
:10034000704796230022114600F063B800F0004287
:1003500030F000400AD0C10D01F56071C0F3160005
:1003600042EA0151C208400711437047002001468C
:10037000704730B50B46014600202022012409E0D9
:1003800021FA02F59D4205D303FA02F5491B04FA4E
:1003900002F52844151EA2F10102F1DC30BD2DE961
:1003A000F05F0546002092469B46884606468146F9
:1003B00040241BE0284641464746224600F037FAD3
:1003C00053465A46C01A914110D311461846224648
:1003D00000F01EFA2D1A67EB01084F462246012055
:1003E000002100F015FA17EB00094E41201EA4F180
:1003F0000104DFDC484631462A464346BDE8F09F0B
:100400000029A8BF7047401C490008BF20F0010028
:10041000704710B4B0FA80FC00FA0CF050EA010406
:1004200004BF10BC704749B1CCF1200421FA04F498
:1004300011FA0CF118BF012121430843A3EB0C0171
:10044000CB1D4FEA00614FEA102042BF002010BCD4
:10045000704700EBC35010440029A4BF10BC704784
:10046000401C490008BF20F0010010BC70472DE976
:10047000FE4F804681EA0300C00F0C46009021F039
:10048000004123F00045B8EB0200A94105D24046E7
:10049000214690461C460B46024623F0004010437E
:1004A00047D0270DC7F30A00C3F30A510290401A40
:1004B000019040286BDAC3F3130040F4801B0098CE
:1004C000924620B10023D2EB030A63EB0B0B019899
:1004D0005946C0F14002504600F09AF906460D46D2
:1004E00050465946019A00F0B2F910EB08006141FC
:1004F000002487EA115284EAE7731A4340D0009A35
:1005000062B3019A012A4FEA075215DC001B61EB26
:1005100002014FF0004202EA0752CDE90042001CFE
:1005200041F5801132462B4600F0B2F903B0BDE828
:10053000F08F40462146F9E7001B61EB0201001CE9
:1005400041F5801300185B412018A2F5001747EB16
:10055000030140EAD570B6196D4111E06D084FEA0C
:10056000360645EAC0754FEA0752001B61EB0201EF
:10057000001C41F5801149084FEA30000019514133
:1005800032462B4603B0BDE8F04F00F072B9009838
:10059000012240000023D0EB020263EBE0730098DD
:1005A00021464FEAE074B8EB000061EB0401E9E793
:1005B00083F000435BE781F0004158E72DE9FE4FEF
:1005C00081EA030404F0004421F0004100944FF05C
:1005D000000B23F0004350EA01045ED052EA03040A
:1005E0005BD0C3F30A54C1F30A552C44A4F2F3348C
:1005F0000194A0FB0254C1F3130141F48011C3F331
:10060000130343F4801301FB024400FB034E840AEE
:10061000970A44EA815447EA8357A4FB0768029586
:100620008D0A05FB07854FEA932C04FB0C54270524
:10063000029D4FEA065847EA1637B5EB08056EEB00
:10064000070C870E920E47EA811742EA8312A7FB36
:100650000201B6EB0B0164EB00042B0D43EA0C33F3
:100660005E1844EB1C50DA465146E7FB0201C5F325
:1006700013044FEA0B3343EA14534FEA0432019C4C
:1006800043EA0603A4F10C040294009CCDE900B4F3
:1006900000F0FEF803B0BDE8F08F00200146F9E756
:1006A0002DE9F04D81EA030404F0004B21F00045F0
:1006B00014464FF0000A23F0004150EA050220D012
:1006C00054EA01021DD0C5F30A570246C5F31303CD
:1006D000C1F31300C1F30A5640F4801543F48013AC
:1006E000A7EB0608101BD64608F2FD3873EB050091
:1006F00002D308F1010801E092185B41B8F1000F44
:1007000003DA00200146BDE8F08D00204FF480118F
:10071000064684460EE0171B73EB050705D3121B34
:1007200063EB050306434CEA010C49084FEA30002D
:1007300092185B4150EA0107EDD152EA030012D052
:1007400082EA040083EA0501084305D0101BAB418F
:1007500006D20122002306E000224FF0004302E00F
:100760006FF0010253101AEB06004CEB085110EB2E
:100770000A0041EB0B01BDE8F04D00F07AB8C1F37F
:100780000A52C1F3130140F2FF3341F480119A423F
:1007900002DA00200146704740F233439A42A2F247
:1007A000334202DC524200F042B800F031B800009F
:1007B00030B5041E71F1000404DB4FF000444042E8
:1007C00064EB0101141E73F1000405DB1C464FF0BD
:1007D0000043524263EB0403994208BF904230BD8C
:1007E0001CB509480090094801900546009C06E0A8
:1007F000E06840F0010394E8070098471034AC42E9
:10080000F6D3FFF777FC0000087F0008287F000878
:10081000202A04DB203A00FA02F1002070479140C0
:10082000C2F1200320FA03F3194390407047202AB5
:1008300004DB203A21FA02F00021704721FA02F38A
:10084000D040C2F120029140084319467047202A47
:1008500006DBCB17203A41FA02F043EAE07306E0E8
:1008600041FA02F3D040C2F12002914008431946F8
:10087000704710B5141E73F1000408DA401C41F1F2
:10088000000192185B411A4301D120F0010010BD14
:100890002DE9F04D92469B4611B1B1FA81F202E08A
:1008A000B0FA80F220329046FFF7B2FF04460F46BE
:1008B00040EA0A0041EA0B0153465A46084313D066
:1008C000114653EA010019D0C8F140025046FFF723
:1008D000AEFF05460E46504659464246FFF798FF82
:1008E000084305D0012004E020463946BDE8F08DDC
:1008F0000020054346EAE0762C4337430A98630517
:10090000E40AA0EB08000022FD0A44EA47540A303A
:1009100002D500200146E9E7010510196941DDE92A
:10092000084500196941BDE8F04DA2E710B5BAB01D
:1009300004F080F903F0B6FF02F020FF02F0E4FEBD
:1009400047F68243C0F6000300200021012203F095
:1009500043FD47F69443C0F6000302200021012224
:1009600003F03AFD47F66743C0F600030420002178
:10097000012203F031FD47F67643C0F6000306205E
:100980000021012203F028FD01F0C2FA47F624619C
:1009900001ACC0F600012046E222FFF7C3FB20466F
:1009A000FFF7E4FB81B2204603F09CFF3AB010BD94
:1009B0002DE9F04FEBB040F60846C4F2010630686E
:1009C000316800F40060039131684FF0010888EA53
:1009D000D02401F40050316888EA503701F4804097
:1009E000316888EA903588B288EAD03B022004F06A
:1009F00059F93068000530680290306858BF0134FA
:100A00008004306858BF01374004306858BF013552
:100A100000044FF0020058BF0BF1010B04F042F943
:100A20003068000530680190306858BF0134800498
:100A3000306858BF01374004306858BF01350004A2
:100A40004FF0020058BF0BF1010B04F02BF9306896
:100A5000D6F800A00005306858BF01348004306823
:100A600058BF01374004306858BF013500044FF0CB
:100A7000020058BF0BF1010B04F014F930680005B7
:100A800058BF0134D6F800903068E4B28004306872
:100A900058BF01374004306858BF013500044FF09B
:100AA000020058BF0BF1010B04F0FCF840F21C06E9
:100AB000042CC2F2000601D3312024E003980299ED
:100AC00000F4805088EA1030C90458BF0130019901
:100AD000C90458BF01305FEACA4158BF01305FEA1C
:100AE000C94158BF0130C0B2042801D332200AE006
:100AF000F8B2042802D3332005E000BFE8B204288E
:100B0000C0F04481342003F0B5FD4FF4FA7004F0D6
:100B1000C9F803F0E1FE7169401AB0F5FA6F36D3F7
:100B200003F0DAFE706152A800F04EFF78B39DF832
:100B3000480147F6A4479DF84921C0F6000712ACCA
:100B4000707120463946327104F03CFA47F663452D
:100B5000C0F6000502203C2101222B4603F03CFC9C
:100B600002203C210122234603F036FC7279204604
:100B7000394604F027FA04203C2101222B4603F0D9
:100B80002BFC04203C210122234603F025FC03F02A
:100B9000A3FEB169401AB0F5FA7F2CD303F09CFE96
:100BA00047F6A745F268C0F6000512ACB0612046D2
:100BB000294604F007FAE1A306201821012203F0D8
:100BC0000BFC062018210122234603F005FC3269A4
:100BD0002046294604F0F6F947F66343C0F60003C1
:100BE00006204E21012203F0F7FB06204E210122B0
:100BF000234603F0F1FB7078072875D8B278072AEE
:100C00004ED8043090424BD952AD4FF000084FF00F
:100C1000020B0DF1480905AF0DF1120A3379747911
:100C200047F6B5312846C0F60001009404F0CAF931
:100C30002846FFF79BFA81B2284603F053FEB078AE
:100C400039468DF84900B0885246ADF84B00484609
:100C50008DF848808DF84AB0ADF8128001F0E8FABE
:100C6000BDF812103846002203F0F8FBF1687278E4
:100C7000B07801318242F16005D103F02DFEB06001
:100C8000B0780121F1700130B0704FF4967004F02B
:100C900009F8B278072A03D8707804309042BDD89A
:100CA000F07801286ED103F017FEB168401A41F2C6
:100CB0008831884266D3727847F62A4112ACC0F672
:100CC0000001204604F07EF92046FFF74FFA81B27A
:100CD000204603F007FE70783169B0700020F07094
:100CE000481C30614AE000BF45F6C800C0F600006D
:100CF000D0E9045490E88E00D0E906CE0DF1480802
:100D0000CDE9165400F1200588E88E003ECD406BF9
:100D1000CDE918CE0DF1680C8CE83E0012AC1F90A6
:100D20002046FFF723FA81B2204603F0DBFD42F2B2
:100D3000107003F0B7FF0020B070308045F600104F
:100D4000C0F6000090E88E00D0E9064C0DF5A47EB8
:100D5000D0E904658EE88E00D0E90812806ACDE9FA
:100D6000584C52AC5C902046CDE95665CDE95A12FC
:100D7000FFF7FCF981B2204603F0B4FD4FF4FA60AE
:100D800003F090FF6BB0BDE8F08F00BF5FFA8BF00F
:100D90000428FFF4BEAE4FF4FA7003F083FF49A0BD
:100DA000322103F09FFD3179727952AC68202346DD
:100DB00000F0C6FC40F6B83003F074FF3179727968
:100DC00005AD68200423009500F0BCF820462946B4
:100DD000682200F07BFA02F097FC47A30020002174
:100DE00001224FF0000803F0F7FA5698FFF7AEFA29
:100DF00012AC02460B4645A1204604F0E3F802205F
:100E000000210122234603F0E7FA0998FFF79EFA32
:100E100002460B4641A1204604F0D4F804200021EC
:100E20000122234603F0D8FA569D00212846FFF7F9
:100E30007AFA0999074608462946FFF728FA002F4B
:100E400008BF3846FFF782FA02460B4637A1204614
:100E500004F0B8F8062000210122234603F0BCFA72
:100E600042F2107003F01EFF02F04EFC47F6824380
:100E7000C0F6000300200021012203F0ADFA47F67E
:100E80009443C0F6000302200021012203F0A4FADB
:100E900047F66743C0F6000304200021012203F057
:100EA0009BFA47F67643C0F6000306200021012294
:100EB00003F092FA86F80280A6F80080C6E903885B
:100EC00027E600BF0D0A2A2A2A2042415420444125
:100ED000552042454E43484D41524B20534F2053DD
:100EE000414E48205341572076732047424E202AD6
:100EF0002A2A0D0A000000003D3D3D2042454E4398
:100F0000484D41524B203D3D3D0000005341573A72
:100F1000252E316620672F730000000047424E3AAD
:100F2000252E316620672F730000000047424E20B7
:100F300067617020252E3166780000002020202077
:100F4000000000002DE9F04FADF5097D814657AD59
:100F5000CDE90712C1A128461A4606934B4604F074
:100F600031F82846FFF702F981B2284603F0BAFCAF
:100F700040F21401C2F2000101200870087103F070
:100F8000ABFCB9F1000F029000F016814CF6CD4099
:100F900009FB00F0C00C039000244FF0000A002071
:100FA0004FF0000B00264FF00008CDE90400099037
:100FB00003E000BF4C4580F00E810698F5B2044472
:100FC0004D454FF0000738BF0127AC4200F29B802F
:100FD00040F21404C2F20004BBF1000F00F0C28022
:100FE000A078C8B30020A07062785FFA88F100BFD3
:100FF00088B285424FF0000398BF012330D901F039
:101000000700904232D0481C83B29D424FF000034B
:1010100098BF012326D900F00704944222D0881CEF
:1010200083B29D424FF0000398BF01231AD900F00C
:101030000704944216D0C81C84B2A5424FF00003A6
:1010400098BF0123A5420DD900F00704944201F195
:101050000401CDD106E000BF4FF0010B2FE000BF2F
:10106000084600BF33B14FF0010B17E00846002BD4
:10107000F9D100BF00F101085FFA88F0F1B28842AF
:1010800008D2002005904FF0010B03F025FC0990D9
:1010900004E000BF00204FF0000B05905FFA88F0DD
:1010A00040F214044845C2F2000464D20699084490
:1010B000A8424FF0000088BF012007425BD1E078D2
:1010C000002853D103F008FC0999401A40F6B831C2
:1010D0008842FFF481AF04984FF0000B0130049078
:1010E00005980130059045E00A20013603F0DAFD4D
:1010F000F5B24D454FF0000738BF0127AC420AF169
:10110000010A7FF665AF4D45BFF462AF06F00700F8
:101110008DF8600002208DF86100079800218DF89D
:10112000620008980DF12D078DF85F108DF86300AF
:10113000ADF82A100DF15F0039460DF12A02F5B223
:1011400001F076F8BDF82A103846002203F086F93F
:101150005FFA88F0A842C7D14FF0010B03F0BCFB47
:101160000990C1E74FF0000B05E000BF4FF0000B06
:1011700084F803B0464605980A2825D25FFA88F419
:10118000002C3FF417AF0399B4FBF1F000FB1140C2
:1011900000287FF40FAF57AD049F28463FA1224699
:1011A0004B46009703F00EFF2846FEF7DFFF81B2A3
:1011B000284603F097FBFDE600204FF0000804905E
:1011C0004FF0000A07E000BF47F68210C0F60000AB
:1011D000352103F087FB03F07FFB029D8146929F40
:1011E00004995FFA88F0A9EB0504C7E900A0C7E9F4
:1011F0000214FFF7A6F80021C4F27A41FFF715F8B0
:1012000006462046FFF79DF801463046FFF73FF8B7
:10121000B9EB050108BF084640F21401C2F2000113
:10122000002238610A700A71FFF790F80F4647F6FE
:10123000EE1157AD0346C0F6000128462246CDE91F
:10124000003703F0BFFE2846FEF790FF81B2284624
:1012500003F048FB0DF5097DBDE8F08F0D0A3D3D1B
:101260003D3D3D3D3D3D3D3D2042454E43484D4188
:10127000524B20474F2D4241434B2D4E2028573D86
:1012800025642C20256420676F6929203D3D3D3D64
:101290003D3D3D3D3D3D0D0A0000000020205B47E7
:1012A000424E5D205469656E20646F3A2025752F8B
:1012B000256420676F69204F4B2C2054696D656F42
:1012C00075743A2025750D0A000000002DE9F04FD5
:1012D000DFB0CDE9040100208DF8520040F60D206A
:1012E0000DF1500BADF8500058469046FEF73EFF0A
:1012F00081B2584603F0F6FA47F6AC50C0F600004B
:1013000090E88E00D0E904540DF1500ED0E906C6E5
:101310008EE88E00CDE9185400F12007D0E90C5476
:1013200090F838008ECF0DF1700E8DF88800584679
:101330008EE88E00CDE91AC620952194FEF716FF9F
:1013400081B2584603F0CEFA47F6AA21C0F6000152
:101350005846424603F036FE5846FEF707FF81B274
:10136000584603F0BFFA47F67050C0F60000056813
:1013700041688268C36846690891CDE9145116A98D
:101380000795129307691096D0F818C0C4698CC1EC
:101390001996D0E9088A866AC56AD0E90C9390F854
:1013A000380013920C908DF8880058461197CDF8AC
:1013B00018C003940E960D950F93CDE91E65CDE9E7
:1013C0001C8ACDF82C80CDE91AC4CDF88090CDE9E7
:1013D00009A92193FEF7CAFE81B2584603F082FAAA
:1013E00047F6E850C0F6000090E88E00D0E90465AA
:1013F0000DF1500ED0E906C48EE88E00CDE91865D7
:1014000000F12007D0E90C6590F838008ECF0DF17F
:10141000700E8DF8880058468EE88E00CDE91AC40B
:1014200020962195FEF7A2FE81B2584603F05AFAA3
:101430000798CDE91C8A14900898DDF80CA0159047
:101440001398CDF86CA016901298CDF88090179054
:1014500011981890109819900D981F900E981E9042
:1014600006981A900F9821900C988DF8880058468D
:10147000FEF77CFE81B2584603F034FADDF8109096
:10148000059CD9F80020236847F6E121C0F6000149
:10149000584603F097FD5846FEF768FE81B258465D
:1014A00003F020FAD9F80420636847F60631C0F645
:1014B0000001584603F086FD5846FEF757FE81B2FC
:1014C000584603F00FFAD9F80820A3687DA15846C2
:1014D00003F078FD5846FEF749FE81B2584603F006
:1014E00001FAD9F80C20E36880A1584603F06AFDA0
:1014F0005846FEF73BFE81B2584603F0F3F9D9F89F
:101500001000FEF723FF06462069A0460C46FEF7B2
:101510001DFF05460F467FA1584632462346069CCE
:10152000CDE90057079F03F04DFD5846FEF71EFE1C
:1015300081B2584603F0D6F90898149705461590DD
:101540001398CDE91A4A169012981790119818908E
:10155000109819900D981F900E981E9009981D9044
:101560000B981C900A9820900F9821900C988DF859
:1015700088005846FEF7FAFD81B2584603F0B2F9EA
:10158000D9F8106000213046CB46FEF7BEFE98B970
:10159000D8F810003146FEF77AFE0021CBF68071B4
:1015A000FEF7EBFD0021C4F2C821FEF73EFEFEF778
:1015B000CDFE02460B4601E00023002247F66E21D5
:1015C00014AEC0F60001304603F0FCFC3046FEF7D6
:1015D000CDFD81B2304603F085F91398CDE914753D
:1015E00016901298CDE91A4A1790119818901098F1
:1015F00019900D981F900E981E9009981D900B98A9
:101600001C900A9820900F9821900C988DF88800D3
:101610003046FEF7ABFD81B2304603F063F9D8F8EF
:101620001000FEF793FE0B4647F610110246C0F677
:101630000001304603F0C6FC3046FEF797FD81B24C
:10164000304603F04FF9DBF8105000212846002601
:10165000FEF75BFE50B9D8F810002946FEF717FEDA
:10166000FEF774FE0646884602E000BF4FF0000811
:101670002846FEF76BFE0F4647F64D1114AC0546A3
:10168000C0F60001204632464346CDE9005703F03C
:1016900099FC2046FEF76AFD81B2204603F022F94C
:1016A00047F62851C0F6000120464722FEF73AFDD2
:1016B0002046FEF75BFD81B2204603F013F95FB0D0
:1016C000BDE8F08F7C204C616E2074696D656F758C
:1016D000742020202020207C2025313375207C2080
:1016E00025313575207C0D0A000000007C205468EF
:1016F0006F69206769616E20286D73292020207C26
:101700002025313375207C2025313575207C0D0A4C
:10171000000000007C2054686F6E67206C756F6E4F
:101720006728672F7329207C202531332E316620CE
:101730007C202531352E3166207C0D0A000000000A
:101740002DE9F04FADF5077D074655ACCDE9051203
:1017500076A120463A46039303F034FC2046FEF778
:1017600005FD81B2204603F0BDF840F2140AC2F232
:10177000000A01208AF800008AF8040003F0ACF89F
:10178000002F4FF00006029000F082804CF6CD4012
:101790007843C00C0490002000244FF0000B00257B
:1017A0004FF00008079003E00024BC4280F07D80E9
:1017B00002208DF8590005988DF857608DF85A0071
:1017C0000698ADF8226026460DF125048DF85B00E1
:1017D0000DF1570021460DF122028DF858504FF0BF
:1017E000000900F025FD8AF802908AF80390BDF800
:1017F0002210204600223446002602F02FFE0798D1
:101800000130079003F068F8814602E09AF803007F
:10181000D0B903F061F8A0EB090000097C2815D8C5
:101820009AF802000028F1D08AF802609AF80100C4
:10183000E9B28842EAD101350134E8B24FF000083C
:10184000072888BF00250AE08AF8036008F101082C
:10185000B8F10A0F0BF1010B20D2002CA4D004998F
:10186000B4FBF1F000FB114000289ED10DF5AA79E0
:1018700048463DA122463B46CDF800B003F0A2FB0E
:101880004846FEF773FC81B2484603F02BF88CE71C
:10189000002000244FF0000B079006E047F6B81038
:1018A000C0F60000352103F01DF803F015F8029E84
:1018B0000746A0EB0609039D07984FF0000885E84E
:1018C00011082046C5F80C90FEF73BFD0021C4F23C
:1018D0007A41FEF7AAFC04464846FEF732FD01466F
:1018E0002046FEF7D4FCB91B08BF084628618AF8D9
:1018F00000808AF80480FEF729FD0F4647F62E2166
:1019000055AC0346C0F6000120464A46CDE90037F3
:1019100003F058FB2046FEF729FC81B2204602F076
:10192000E1FF0DF5077DBDE8F08F00BF0D0A3D3DDD
:101930003D3D3D3D3D3D3D3D2042454E43484D41B1
:10194000524B2053544F502D414E442D5741495432
:101950002028256420676F6929203D3D3D3D3D3DA0
:101960003D3D3D3D0D0A000020205B5341575D2069
:101970005469656E20646F3A2025752F25642067B1
:101980006F69204F4B2C2054696D656F75743A2038
:1019900025750D0A0000000040F21401C2F200019A
:1019A0000A78002A1EBF4870012088707047000026
:1019B00040F21400C2F20000017800291CBF01218E
:1019C000C1707047FEE700002DE9F04184B0044685
:1019D00000200290022040F6000500900120C4F291
:1019E00001050190032041F2040603906946284650
:1019F000CEF2000600F0D8FD28460221002200F0B9
:101A0000E1FE142000F0BCFD28460221012200F076
:101A1000D9FE40F20801C2F20001306809684DF6B3
:101A20008362C4F21B32A1FB0212910C0901A1EBEB
:101A3000924149003268121A8A420BD23268121A55
:101A40008A4207D23268121A8A4203D23268121AC4
:101A50008A42EFD3002002210390CDE9001001203B
:101A60004DF6F006029069462846CFF6FF7600F064
:101A70009BFD37462846022100F09EFE012803D137
:101A80000137F7D309E000BF374600BF28460221DF
:101A900000F092FE40B90137F8D3002004B0BDE851
:101AA000F08100BF0136F8D22846022100F084FE02
:101AB0000128F7D000F022F8054600F01FF8804614
:101AC00000F01CF8074600F019F8064600F016F87A
:101AD00008EB050139443144C9B2081AB0FA80F064
:101AE0004FEA50104FF0000114BF0D4639462570E3
:101AF0006170A07004B0BDE8F08100002DE9F04FE6
:101B000081B04DF6F00BCFF6FF7B40F60004C4F237
:101B100001045D462046022100F04EFE30B9013539
:101B2000F8D30020C0B201B0BDE8F08F41F2040646
:101B300040F20808CEF20006C2F200083068D8F879
:101B400000104DF6836AC4F21B3AA1FB0A12910CF5
:101B500001EB8101C90000BF3268121A8A420BD220
:101B60003268121A8A4207D23268121A8A4203D2A3
:101B70003268121A8A42EFD32046022100F01CFE7E
:101B800000275D46012808BF6FF07F07204602212D
:101B900000F012FE012807D10135F7D30020C0B2B2
:101BA00001B0BDE8F08F00BF5D4600BF20460221B6
:101BB00000F002FE30B90135F8D30020C0B201B008
:101BC000BDE8F08F3068D8F80010A1FB0A12910C24
:101BD00001EB8101C90000BF3268121A8A420BD2A0
:101BE0003268121A8A4207D23268121A8A4203D223
:101BF0003268121A8A42EFD32046022100F0DCFD3F
:101C00000138B0FA80F0400947EA80175D4600BF0E
:101C10002046022100F0D0FD012807D10135F7D37D
:101C20000020C0B201B0BDE8F08F00BF5D4600BF2C
:101C30002046022100F0C0FD30B90135F8D3002064
:101C4000C0B201B0BDE8F08F3068D8F80010A1FB39
:101C50000A12910C01EB8101C90000BF3268121A0F
:101C60008A420BD23268121A8A4207D23268121A9A
:101C70008A4203D23268121A8A42EFD320460221E6
:101C800000F09AFD0138B0FA80F0400947EA4019A7
:101C90005F4600BF2046022100F08EFD012805D1DD
:101CA00001374FF00000F5D33CE700BF5F4600BFAF
:101CB0002046022100F080FD20B901374FF00000DE
:101CC000F6D32FE73068D8F80010A1FB0A12910C68
:101CD00001EB8101C9003268121A8A420BD23268C4
:101CE000121A8A4207D23268121A8A4203D2326822
:101CF000121A8A42EFD32046022100F05DFD01381E
:101D0000B0FA80F0400949EA00195F4620460221F6
:101D100000F052FD012805D101374FF00000F5D346
:101D200000E700BF5F462046022100F045FD28B9CC
:101D300001374FF00000F6D3F4E600BF3068D8F862
:101D40000010A1FB0A12910C01EB8101C90032685D
:101D5000121A8A420BD23268121A8A4207D23268A9
:101D6000121A8A4203D23268121A8A42EFD32046EC
:101D7000022100F021FD0138B0FA80F0400949EA63
:101D8000C0095F462046022100F016FD012805D15A
:101D900001374FF00000F5D3C4E600BF5F46204690
:101DA000022100F009FD28B901374FF00000F6D3F9
:101DB000B8E600BF3068D8F80010A1FB0A12910CF9
:101DC00001EB8101C9003268121A8A420BD23268D3
:101DD000121A8A4207D23268121A8A4203D2326831
:101DE000121A8A42EFD32046022100F0E5FC0138A6
:101DF000B0FA80F0400949EA80095F462046022196
:101E000000F0DAFC012805D101374FF00000F5D3CE
:101E100088E600BF5F462046022100F0CDFC28B9CD
:101E200001374FF00000F6D37CE600BF3068D8F8E9
:101E30000010A1FB0A12910C01EB8101C90032686C
:101E4000121A8A420BD23268121A8A4207D23268B8
:101E5000121A8A4203D23268121A8A42EFD32046FB
:101E6000022100F0A9FC0138B0FA80F0400949EAEB
:101E700040095F462046022100F09EFC012805D162
:101E800001374FF00000F5D34CE600BF5F46204617
:101E9000022100F091FC28B901374FF00000F6D381
:101EA00040E600BF3068D8F80010A1FB0A12910C80
:101EB00001EB8101C9003268121A8A420BD23268E2
:101EC000121A8A4207D23268121A8A4203D2326840
:101ED000121A8A42EFD32046022100F06DFC01382D
:101EE000B0FA80F0400949EA00062046022100F0DD
:101EF00063FC012806D11BF1010B4FF00000F4D365
:101F000010E600BF3046C0B201B0BDE8F08F00005F
:101F100081B04EF6FC50CEF20000016841F08071B5
:101F2000016041F20000CEF2000000214160016832
:101F300041F00101016041F21800C4F202000168A1
:101F400041F004010160006800F004000090009876
:101F500001B07047704700002DE9F04F83B040F2A8
:101F6000100EC2F2000E9EF800307E2840F0E8808D
:101F7000012B40F0F380BEF80280B8F1050FC0F0ED
:101F8000ED8040F2380BC2F2000B9BF802A0A8F1E2
:101F90000503534540F0E2809BF8000008EB0B037B
:101FA00001909BF80100ABF10207029013F8010CBD
:101FB000A8F102031BF8039023F001044FF6FF730E
:101FC00041F22105009000BF17F8020F83EA0020BC
:101FD00003B24FEA400C002B48BF85EA400C0FFAD1
:101FE0008CF04FEA4C03002848BF85EA4C0318B236
:101FF0005A00002848BF85EA430210B25300002867
:1020000048BF85EA420318B25A00002848BF85EA53
:10201000430210B25300002848BF85EA420318B2B9
:102020005A00002848BF85EA430210B20028787899
:102030004FEA420348BF85EA420383EA002002B226
:102040004300002A48BF85EA400318B25A0000281E
:1020500048BF85EA430210B25300002848BF85EA12
:10206000420318B25A00002848BF85EA430210B262
:102070005300002848BF85EA420318B25A000028DE
:1020800048BF85EA430210B25600002848BF85EADF
:10209000420630B27300002848BF85EA4603023C7E
:1020A00092D15FEAC87034D0B87841F2210483EA53
:1020B000002002B24300002A48BF84EA400318B25D
:1020C0005A00002848BF84EA430210B25300002897
:1020D00048BF84EA420318B25A00002848BF84EA85
:1020E000430210B25300002848BF84EA420318B2EA
:1020F0005A00002848BF84EA430210B25700002863
:1021000048BF84EA420738B27B00002848BF84EA0F
:10211000470300989AB240EA0920019B9042029836
:102120000B70487058D1BAF1000F81F802A076D038
:10213000BAF1040F0AF0030750D2002360E000BF99
:10214000022B15D0012B2AD17D281BD102208EF81D
:102150000000002003B0BDE8F08F00BF0020012187
:10216000AEF802008EF8001003B0BDE8F08F00BF9B
:102170005E2819D1BEF80200B0F5827F24D27E21FC
:102180001AE000BFBEF802108A08402A07D84A1C8D
:10219000AEF8022040F23802C2F200025054002091
:1021A00003B0BDE8F08F00BF5D280DD1BEF802007E
:1021B0008108402908D87D21421CAEF8022040F257
:1021C0003802C2F20002115401208EF800000020F3
:1021D00003B0BDE8F08F00BF022021E00AF0FC064A
:1021E000002300BF0BEB0300C278CD18EA70027920
:1021F00004332A7142799E426A718079A871F1D1C3
:102200006FB103EB0B00C2780331012FCA5406D023
:10221000027919444A70022F1CBF4079887001204E
:1022200000218EF80010AEF8021003B0BDE8F08F68
:102230002DE9F04FC1B00D467E21297090F8029033
:1022400001889046B9F1000FADF800108DF80290AA
:1022500005D0C11C684603304A46FDF763FF09F10B
:10226000030C2CF0010043424FF6FF746FF00102A3
:10227000EA4641F2210700BF0AEB02008678C178E6
:1022800084EA062006B24400002E48BF87EA4004D4
:1022900020B26600002848BF87EA440630B27400C6
:1022A000002848BF87EA460420B26600002848BFDD
:1022B00087EA440630B27400002848BF87EA460423
:1022C00020B26600002848BF87EA440630B2740096
:1022D000002848BF87EA460420B26600002848BFAD
:1022E00087EA440686EA012001B24600002948BF79
:1022F00087EA400630B27100002848BF87EA4601ED
:1023000008B24E00002848BF87EA410630B271008B
:10231000002848BF87EA460108B24E00002848BF9F
:1023200087EA410630B27100002848BF87EA4601BB
:1023300008B24E00002848BF87EA410630B2023298
:102340007400002803EB020048BF87EA460402300D
:1023500092D15FEACC7036D00AEB0200807841F26D
:10236000210184EA002002B24300002A48BF81EA2A
:10237000400318B25A00002848BF81EA430210B255
:102380005300002848BF81EA420318B25A000028CF
:1023900048BF81EA430210B25300002848BF81EAD7
:1023A000420318B25A00002848BF81EA430210B223
:1023B0005300002848BF81EA420318B25C0000289D
:1023C00048BF81EA4304A0B2000A0AEB0C010AF8F4
:1023D0000C0009F105004C7000F0030C20F0030B19
:1023E000012300227D244FF05D0E4FF05E0907E0CF
:1023F00088B2EC54BB1C05F800900432934555D0CC
:102400001AF80270591C7D2F98B207D07E2F0BD17D
:102410002C5488B29F1C05F8009007E02C5488B219
:102420009F1C05F800E001E02F540F460AEB020361
:102430005878791C7E28BEB208D07D280CD188B28D
:10244000AC55023705F800E008E000BF88B2AC5593
:10245000023705F8009001E00F46A8559878791CDE
:102460007E28BEB208D07D280CD188B2AC55023788
:1024700005F800E008E000BF88B2AC55023705F867
:10248000009001E00F46A855D878791C7E28BBB291
:10249000AED07D2806D188B2EC54BB1C05F800E014
:1024A000ABE700BFE8540B46A7E700BFBCF1000F45
:1024B0005CD01AF80200591C7E289FB20CD07D28EF
:1024C00014D17D20E85588B25D2102332954BCF136
:1024D000010F10D14AE000BF7D20E85588B25E218F
:1024E00002332954BCF1010F05D13FE00B46E855FA
:1024F000BCF1010F3AD00AEB02004778591C7E2F3D
:102500009AB20BD07D2F13D17D27AF5489B25D22B3
:1025100002336A54BCF1020F0FD127E07D27AF547C
:1025200089B25E2202336A54BCF1020F05D11DE06C
:102530000B46AF54BCF1020F18D08278581C7E2A8B
:1025400099B209D07D2A0FD17D226A5480B25D21D3
:10255000023329540AE000BF7D226A5480B25E2112
:102560000233295402E000BF03466A54581C99B252
:102570007E226A54A8F8000041B0BDE8F08F000048
:10258000B0B5044600F024F9054640F20000C2F25E
:1025900000000078611C18BF044400BF00F018F967
:1025A000401BA042FAD3B0BD2DE9F04F82B00E68B7
:1025B000002E00F0FD8041F20042C4F2010204232B
:1025C00040F2004E904208BF03234FF6FF7CC4F256
:1025D000010E009300240123C1F2100C4FF0000AF9
:1025E0004FF000094BE000BF41F20002C4F20102CB
:1025F000009F904208BF022704F00C030F229A406C
:102600002BEA020207FA03F34FEA9A051A4346F847
:1026100025204E6840F20C45F202DEF8082054BF37
:1026200022EA080242EA0802C4F20105CEF80820B4
:102630002A68B30254BF22EA080242EA08022A606A
:10264000B303DEF8042054BF22EA080242EA08027B
:10265000F303CEF80420DEF800204FF0010354BF4E
:1026600022EA080242EA0802CEF800200E680AF1C7
:10267000010A36FA0AF204F1040400F0998003FA20
:102680000AFB16EA0B08F1D04E68664512DC122EE2
:1026900056D8DFE806F0350B4D495555555555557B
:1026A0005555555555555545510000BFD1F80C901D
:1026B00046E000BF4FF6FF72C1F2210296420FDCE6
:1026C0000022C1F2110296421AD00022C1F2120277
:1026D000964215D00022C1F22102964210D02FE07E
:1026E0000022C1F2220296420AD00022C1F2310237
:1026F000964205D00022C1F23202964220D100BF9C
:102700008A684AB1012A14BFC0F814B0C0F810B0EA
:102710004FF0080914E000BF4FF0040910E000BFBB
:10272000CA6802F104090BE04FF0000908E000BF9D
:10273000CA6802F1080903E0CA6802F10C0900BF87
:1027400002462646B8F5807F24BF0432203E176833
:102750000F25B54027EA050509FA06F63543156049
:10276000CA79D2067FF582AF41F21803C4F20203A0
:102770001A68AEF57E7642F001021A601A6802F01D
:1027800001020192019A2AF0030256F802B040F6C3
:102790000002C4F20102904208D040F60042C4F2A6
:1027A000010290427FF420AF012725E7002723E7AD
:1027B00002B0BDE8F08F00008068084018BF01201B
:1027C00070470000002A08BF09040161704700003B
:1027D00040F29420C2F2000000687047002804BF55
:1027E00001207047F0B581B0044690F83D0028B94B
:1027F000002084F83C00204600F090F9242084F862
:102800003D002068016821F001010160016841F488
:1028100000410160016821F40041016000F036FBD5
:10282000636848F2A16CC0F2010C40F60011C0F2DE
:102830003D0163453CBF48F28041C0F21E01884221
:1028400002D2012001B0F0BD4DF68361C4F21B310C
:10285000A0FB01122168970CD1F804E04FF49676A2
:102860002EF03F0545EA92454D60774348F638160D
:102870000D6AC0F24106A7FB067625F03F076345C7
:1028800038BF960C721C3A430A62CA6948F2A066C5
:102890004CF6FF77C0F20106B34222EA07020BD8DA
:1028A00001385B00B0FBF3F001306FF31F300428F8
:1028B00098BF04201BE000BFA768013857B1192753
:1028C0007B43B0FBF3F001306FF31F3070B100F5C4
:1028D000804007E003EB4303B0FBF3F001306FF3FC
:1028E0001F3018B100F5004001E000BF0120104387
:1028F000C8610868D4E9072320F0C00010431843DA
:102900000860886848F2FF3204F10C0790438CCFCE
:1029100018431043A6698860C86820F0FF00384358
:102920003043C860086840F00100086000202021A2
:10293000206484F83D10206384F83E0001B0F0BDAF
:102940002DE9F04383B01E46174689460446FFF73B
:102950003FFF94F83D10202924D10546206800BF90
:10296000816989071AD5FFF733FF411B20681A29AF
:10297000F6D381698907F3D500202021206384F8EC
:102980003D1084F83E00216C41F02001216484F860
:102990003C00022003B0BDE8F08300BF94F83C1077
:1029A000012903D1022003B0BDE8F083012184F89E
:1029B0003C100168C90703D1016841F001010160C1
:1029C000016840F2020821F400610160212184F8CD
:1029D0003D10102184F83E10002121646762668555
:1029E000618DC0F201082185A8F10211E162E16A5E
:1029F0000A9E11F5803F18BF01291DD1016841F4DD
:102A00008071016020464FF001110022334600958D
:102A100000F0C6FC50B120680068C00544BF4FF408
:102A200000702064012003B0BDE8F0832069B0F598
:102A3000804F07D1FE2015E00829DFD0216B122935
:102A4000DCD0DFE7062000EAD9102168F030086109
:102A500008F10601204632462B4600F087FD00288B
:102A6000E0D1FF20216800EA0900086120464146C4
:102A700032462B4600F07AFD0028D3D10020029088
:102A800020684169029180690290029806E000BFC7
:102A9000204631462A4600F025FC18BB208D68B33D
:102AA000204631462A4600F0CDFDD8B9606A21683B
:102AB000024612F8013B0B616262628D013A628547
:102AC000228D531E23854F697F07E1D51B04DFD07C
:102AD000437802300B616062608D01386085901E22
:102AE0002085D5E7206C04289CD12068016841F43A
:102AF00000710160012003B0BDE8F0832068016827
:102B000041F400710160202084F83D00002084F829
:102B10003E0084F83C0003B0BDE8F08310B586B0F9
:102B2000016845F20040C4F2000081424FF000010C
:102B3000CDE90411CDE9021102D006B010BD00BFED
:102B400041F21804C4F20204216800F5384041F053
:102B500008012160216801F0080101910199C0215B
:102B60000291122103910321059102A9FFF71CFD97
:102B7000606840F400106060606800F4001001902C
:102B8000019806B010BD000040F2000040F2942110
:102B9000C2F20000C2F2000100780A681044086026
:102BA0007047000080B542F20000C4F202000168E4
:102BB00041F010010160032000F07AF80F2000F0CE
:102BC00005F800F027F8002080BD000070B540F245
:102BD0000006C2F2000640F208013278C2F200019B
:102BE0004FF47A730968B3FBF2F20446B1FBF2F1D9
:102BF000084600F05FFB0F2C4FF0010508D838B9EC
:102C00004FF0FF3021460022002500F025F87460C7
:102C1000284670BD82B041F21800C4F2020001687B
:102C2000022241F001010160016801F001010191FE
:102C30000199416841F080514160406800F0805046
:102C4000009000980420C4F20100016862F31A6148
:102C5000016002B07047000010B54EF60C5CCEF279
:102C6000000CDCF80030C3F3022E8EF00704042CB5
:102C700028BF0424BEF103034FF0FF3E0EFA04F414
:102C800038BF0023A14399400EFA03F39A4311433E
:102C900000F00F0200F160430901043A03F56443B8
:102CA0006244002848BF02F10C03197010BD0000F7
:102CB0004EF60C51CEF200010A684FF6FF031A409F
:102CC00060F30A2242F0806040F0FD7008607047B7
:102CD000002804BF012070472DE9F04381B042F283
:102CE0000008C4F202080446D8F800000D4600F0BF
:102CF000070081420CD9D8F8000020F007002843D3
:102D0000C8F80000D8F8000000F00700A8426CD115
:102D1000206841F204098107C4F2020917D541076E
:102D200005D5D9F8001041F4E061C9F80010010799
:102D300005D5D9F8001041F46051C9F80010D9F850
:102D40000010A26821F0F0011143C9F80010C0077B
:102D500042D1D8F8000000F0070085420CD2D8F824
:102D6000000020F007002843C8F80000D8F8000051
:102D700000F00700A84238D12068410707D5D9F8EC
:102D80000010E26821F4E0611143C9F80010000767
:102D900008D5D9F80000216920F4605040EAC1004C
:102DA000C9F80000D9F8002002F00C00082841F210
:102DB0000020C0F27A004DD147F60013C2F38341E0
:102DC000C0F60003595CD20338D440F60010C0F2BC
:102DD0003D0048433EE000BF606859F8041C0228EB
:102DE00008D0012826D1890306D4012001B0BDE80E
:102DF000F08300BF8901F8D5D9F8001021F0030154
:102E00000843C9F80000FFF7E3FC064641F28837A3
:102E1000D9F80000616800F00C00B0EB810F98D089
:102E2000FFF7D6FC801BB842F2D9032001B0BDE801
:102E3000F08300BF8907D8D5DEE700BFD9F80020AE
:102E400047F6FE03C2F34042C0F600039A5C4843D3
:102E5000B0FBF2F0D9F8001045F69012C1F303115F
:102E6000C0F60002515C40F2080220FA01F140F283
:102E70000400C2F200000068C2F200021160FFF715
:102E8000A5FE002001B0BDE8F083000040F208007C
:102E900041F20401C2F20000C4F2020100680968B4
:102EA00045F6A012C1F30221C0F60002515CC840F1
:102EB00070470000002804BF012070472DE9F04151
:102EC00082B00446007841F20006C007C4F2020650
:102ED0000CD0706800F00C00042840F0818030684D
:102EE000800303D56068002800F0468120788007C1
:102EF0001BD5706810F00C0F09D0706800F00C0042
:102F0000082840F087807068C00300F18380306833
:102F1000800703D52069012840F02E81306861695F
:102F200020F0F80040EAC10030602078000713D498
:102F3000207840072CD4E569002D00F018817068D6
:102F400000F00C00082840F0A780012D40F004811B
:102F5000012002B0BDE8F081A069002800F0848063
:102F60000020C4F242200121C0F88014FFF730FC99
:102F7000054600BF706A800700F1B280FFF728FCA9
:102F8000401B0228F6D9032002B0BDE8F08100BF43
:102F9000F0695FEAC00808D4F06940F08050F06141
:102FA000F06900F080500090009847F20007C4F2EA
:102FB00000073868C00549D4386840F4807038602C
:102FC000FFF706FC054600BF3868C0053ED4FFF792
:102FD000FFFB401B6428F7D9032002B0BDE8F08155
:102FE000706800F00C00082803D17068C0033FF53A
:102FF00076AF61683068002900F00C81B1F5A02F30
:1030000000F00081B1F5803F40F01A8140F480303B
:103010001CE100BF2069002840F20000C4F24220F9
:1030200000F0888001210160FFF7D2FB054600BF58
:10303000306880073FF572AFFFF7CAFB401B0228DC
:10304000F6D9032002B0BDE8F08100BFE168306A24
:10305000002900F09D80052900F09280012940F0B0
:10306000AF8040F00100B1E00020C4F24220002116
:10307000C0F88014FFF7ACFB054600BF706A8007FC
:103080007FF556AFFFF7A4FB401B0228F6D90320BB
:1030900002B0BDE8F08100BF0027C4F24227002043
:1030A0003866FFF795FB022D05460DD1306880018B
:1030B00040F1DE80FFF78CFB401B02284FF003003D
:1030C000F4D902B0BDE8F081306880014FD5FFF738
:1030D0007FFB401B02284FF00300F5D9F1E700BF4A
:1030E00040F20800C2F20000006844F6D351C1F279
:1030F0006201A0FB0101480A019000BF00BF0198D6
:10310000411E002801913FF413AF00BF0198411EFA
:10311000002801913FF40CAF00BF0198411E002828
:1031200001913FF405AF00BF0198411E00280191B5
:10313000E4D1FDE600210160FFF74AFB054600BF30
:10314000306880077FF5F1AEFFF742FB401B022895
:103150004FF00300F4D9B4E77068216A00F48032BC
:103160008A4209D1616A00F47010884204D10020BB
:1031700002B0BDE8F08100BF012002B0BDE8F081DF
:1031800040F004003062306A40F001001EE000BFF1
:1031900020F001003062306A20F004003062FFF756
:1031A00017FB054641F28837306A800720D5FFF7C4
:1031B0000FFB401BB8424FF00300F5D981E700BF79
:1031C00020F001003062306A20F004003062FFF726
:1031D000FFFA054641F28837306A800708D4FFF7C6
:1031E000F7FA401BB842F7D9032002B0BDE8F081DE
:1031F000B8F1000F3FF59FAEF06920F08050F0610C
:1032000099E600BF40F480203060306840F48030A0
:103210001CE000BF20F480303060306820F4802053
:103220003060FFF7D5FA0546306880037FF55EAE63
:10323000FFF7CEFA401B64284FF00300F4D940E7B3
:1032400020F480303060306820F480203060FFF758
:10325000BFFA0546306880033FF548AEFFF7B8FA7D
:10326000401B6428F6D9032002B0BDE8F08100BFFE
:10327000206AB0F5803F05D17168A26821F4003161
:10328000114371607168626A21F47411114308433B
:10329000706001203866FFF79BFA044630688001B1
:1032A0003FF565AFFFF794FA001B02284FF00300CB
:1032B000F4D906E7411E0020B0EB116F1CBF0120BE
:1032C00070474EF21002CEF2000251604EF62351CA
:1032D000CEF20001F0230B7007219060116070475F
:1032E000FEE7000070B50368044653F8140F40076A
:1032F00011D40E46481C29D086BB00BF1868400573
:1033000027D4FFF765FA236853F8140F400737D521
:1033100018684007F2D5002070BD00BF186840074C
:10332000F9D41868400514D418684007F3D4186815
:1033300040050ED418684007EDD41868400508D43D
:10334000186840074FF0000048BF70BD186840057E
:10335000E4D56FF480601860042012E0154603E0A5
:1033600053F8140F4007D6D418684005F1D4FFF77E
:103370002FFA401B2368B042F2D958694007EFD4B6
:10338000202000212022216384F83D2084F83E1073
:10339000226C10432064012084F83C1070BD0000B2
:1033A0002DE9F041054600681E46144601F47F02EF
:1033B00001338FB242D0DDF81880B2F5803F40F083
:1033C000878040693840C01BB0FA80F040098442D1
:1033D00040F0C8804EB924E040693840C01BB0FAC4
:1033E00080F04009844240F0BD80FFF7F1F9A0EB86
:1033F00008012868B142EFD941693940C91BB1FAC7
:1034000081F149098C42E7D19BE000BF4069384017
:10341000C01BB0FA80F0400984424FF0000040F039
:10342000A280FFF7D5F9286841693940C91BB1FA74
:1034300081F149098C42E9D183E000BFB2F5803FB8
:1034400024D100BF41693940C91BB1FA81F1490952
:103450008C4240F0878041693940C91BB1FA81F143
:1034600049098C4240F07E8041693940C91BB1FA5C
:1034700081F149098C4275D141693940C91BB1FAC2
:1034800081F149098C42DDD06CE000BF816939408F
:10349000C91BB1FA81F149098C4263D18169394074
:1034A000C91BB1FA81F149098C425BD1816939406C
:1034B000C91BB1FA81F149098C4253D18169394064
:1034C000C91BB1FA81F149098C42DFD04AE000BF43
:1034D00080693840C01BB0FA80F04009844241D175
:1034E00046B923E080693840C01BB0FA80F040093B
:1034F000844237D1FFF76CF9A0EB08012868B1428C
:10350000F0D981693940C91BB1FA81F149098C426E
:10351000E8D116E080693840C01BB0FA80F040095D
:1035200084424FF0000018BFBDE8F081FFF750F96A
:10353000286881693940C91BB1FA81F149098C4277
:10354000E8D100202021286385F83D1085F83E0051
:10355000296C41F02001296485F83C000120BDE878
:10356000F08100BF0020BDE8F0810000F0B581B01F
:10357000044600681D4643698FB203EA0701B94259
:1035800002D1002001B0F0BD4169164601323CD0A5
:10359000490512D47EB300BFFFF71AF9411B20681A
:1035A000B14203D941693940B9422BD1416939400F
:1035B000B942E6D041694905EED5016841F4007190
:1035C00001606FF4806141610420002120222163A9
:1035D00084F83D2084F83E10226C1043206484F867
:1035E0003C10012001B0F0BD41693940B942C8D05A
:1035F00041694905E1D4FFF7EBF82068416939409A
:10360000B942F1D02020E0E741694905D5D44169AC
:103610003940B942B5D041694905CED441693940F4
:10362000B942AED041694905C7D441693940B94270
:10363000A7D041694905C0D441693940B942E3D1B5
:103640009FE7000070B50368044653F8140F0006A6
:1036500011D40E46481C29D086BB00BF186840050F
:1036600027D4FFF7B5F8236853F8140F000637D5B1
:1036700018680006F2D5002070BD00BF186800066B
:10368000F9D41868400514D418680006F3D41868F3
:1036900040050ED418680006EDD41868400508D41B
:1036A000186800064FF0000048BF70BD186840055C
:1036B000E4D56FF480601860042012E0154603E042
:1036C00053F8140F0006D6D418684005F1D4FFF75C
:1036D0007FF8401B2368B042F2D958690006EFD446
:1036E000202000212022216384F83D2084F83E1010
:1036F000226C10432064012084F83C1070BD00004F
:10370000FEE70000FEE7000070B5ADF5826D42F205
:10371000002040F23C24C0F20070C2F20004CDF858
:103720000C0464260DF20C422046782104230096F6
:10373000FFF706F942F20010CFF60070CDF80C0446
:103740000DF20C422046782104230096FFF7F8F88A
:1037500040200DF10B058DF80B00681C4FF48061C3
:10376000FCF7F9FC204678212A4640F201430096F6
:10377000FFF7E6F80DF5826D70BD000070B5ADF590
:10378000846D4AF60060C8F2D500CDF8050043F616
:10379000A870C0F2D300CDF8090048F64050C2F23C
:1037A0001400CDF80D004AF20010CDF6C820CDF877
:1037B000110048F21210CDF6CF10CDF815004DF6DD
:1037C000F130CAF24040CDF819004AF6A670ADF8C3
:1037D0001D0064206426FEF7D3FE40F23C24C2F2B2
:1037E00000040DF10502204678211A230096FFF708
:1037F000A7F842F20020C0F20070CDF81F000DF1D2
:103800001F022046782104230096FFF799F842F220
:103810000010CFF600700DF11F05CDF81F002046F7
:1038200078212A4604230096FFF78AF840208DF875
:103830001F00681C4FF48061FCF78DFC2046782146
:103840002A4640F201430096FFF77AF80DF5846DA1
:1038500070BD00002DE9F04F8DB00D460646032ADD
:10386000A3F1200000F0CC84022A00F03581012A67
:1038700040F0AE85C0B245F6A81100EB4000C0F69E
:10388000000140F23C2A01EB400B11F810404FF4CC
:103890000850C2F2000A0DF13008ADF8300064277C
:1038A00050467821424604238DF832608DF833600B
:1038B0000097FFF745F84FF404500DF13009ADF8CB
:1038C0003000504678214A4604238DF832508DF856
:1038D00033500097FFF734F840208DF830000CAAE1
:1038E0005046782102238DF831400097FFF728F8E1
:1038F0004FF40850ADF8300050467821424604237A
:103900006C1C8DF832608DF833600097FFF718F863
:103910004FF40450ADF83000504678214A46042355
:103920008DF832408DF833400097FFF709F89BF887
:10393000031040208DF830009BF8010008919BF89F
:103940000410CDF828B09BF802400DF1300B09911E
:103950008DF83100504678215A4602230097FEF731
:10396000EFFF4FF40850ADF83000504678210CAA14
:103970000423A84602358DF832608DF83360009735
:10398000FEF7DEFF4FF40450ADF8300050467821CA
:103990004A4604238DF832508DF833500097FEF7D5
:1039A000CFFF40208DF83000504678215A46022340
:1039B0008DF831405D460097FEF7C2FF4FF4085086
:1039C0000DF1300BADF83000504678215A460423F3
:1039D00008F103048DF832608DF833600097FEF72C
:1039E000AFFF4FF40450ADF83000504678214A46FE
:1039F00004238DF832408DF833400097FEF7A0FF86
:103A000040208DF83000089878218DF8310050461C
:103A10002A4602230097FEF793FF4FF40850ADF8B3
:103A20003000504678215A46042308F104048DF8EA
:103A300032608DF833600097FEF782FF4FF4045038
:103A4000ADF83000504678214A4604238DF83240C4
:103A50008DF833400097FEF773FF40208DF830005B
:103A6000099878218DF8310050462A4602230097A4
:103A7000FEF766FF0A98782145794FF40850ADF8B3
:103A8000300050465A46042308F105048DF8326090
:103A90008DF833600097FEF753FF4FF40450ADF8F4
:103AA0003000504678214A4604238DF832408DF884
:103AB00033400097FEF744FF40208DF83000504619
:103AC00078210CAA02238DF831500097FEF738FFB9
:103AD0000DB0BDE8F08F00BFC0B245F6D03100EBAD
:103AE000C000C0F6000140F23C2A01EB400B11F887
:103AF00010404FF40850C2F2000A0DF13008ADF842
:103B000030004FF0640950467821424604238DF876
:103B100032608DF83360CDF80090FEF711FF4FF45E
:103B200004500CAFADF83000504678213A460423DB
:103B30008DF832508DF83350CDF80090FEF700FF2D
:103B400040208DF830000CAA5046782102238DF8D1
:103B50003140CDF80090FEF7F3FE4FF40850ADF879
:103B6000300050467821424604236C1C8DF83260A8
:103B70008DF83360CDF80090FEF7E2FE4FF404506C
:103B8000ADF83000504678213A4604230A948DF867
:103B900032408DF83340CDF80090FEF7D1FE9BF80F
:103BA000031040208DF830009BF8010007919BF82E
:103BB0000410CDF808B02C469BF802500DF1300BE4
:103BC00006918DF83100504678215A460223CDF8EF
:103BD0000090FEF7B5FE4FF40850ADF830005046A7
:103BE00078210CAA042304F102088DF832608DF8C4
:103BF0003360CDF80090FEF7A3FE4FF40450ADF80B
:103C00003000504678213A460423CDF824808DF8C0
:103C100032808DF83380CDF80090FEF791FE402081
:103C20008DF83000504678215A4602238DF83150E5
:103C3000CDF80090FEF784FE4FF408500DF13008E7
:103C4000ADF830005046782142460423E51C274653
:103C50008DF832608DF83360CDF80090FEF770FE7D
:103C60004FF4045008958DF832508DF833500CAD58
:103C7000ADF83000504678212A460423CDF8009054
:103C8000FEF75EFE40208DF83000079878218DF811
:103C9000310050465A460223CDF80090FEF750FE00
:103CA0004FF40850ADF830005046782142460423C6
:103CB00004348DF832608DF83360C346CDF800903F
:103CC000FEF73EFE4FF40450ADF830005046782128
:103CD0002A46042307948DF832408DF83340CDF8FE
:103CE0000090FEF72DFE40208DF8300006987821D8
:103CF0008DF8310050460CAA0223CDF80090FEF753
:103D00001FFEDDF808804FF4085098F80540ADF824
:103D10003000504678215A4604237D1D8DF83260CC
:103D20008DF83360CDF80090FEF70AFE4FF4045092
:103D30000DF1300BADF83000504678215A4604237F
:103D400006958DF832508DF83350CDF80090FEF77F
:103D5000F7FD40208DF83000504678210CAA022350
:103D60008DF83140CDF80090FEF7EAFD4FF4085091
:103D700098F80640ADF83000504678210CAA04238C
:103D8000BD1D8DF832608DF83360CDF80090FEF7E0
:103D9000D7FD4FF40450ADF83000504678215A4614
:103DA000042305958DF832508DF83350CDF80090EE
:103DB000FEF7C6FD40208DF83000504678210CAA51
:103DC00002238DF83140CDF80090FEF7B9FD4FF495
:103DD000085098F80740ADF83000504678210CAAFA
:103DE0000423FD1D8DF832608DF83360CDF800900E
:103DF000FEF7A6FD4FF40450ADF830005046782190
:103E00005A46042304958DF832508DF83350CDF87E
:103E10000090FEF795FD40208DF830005046782147
:103E20000CAA02238DF83140CDF80090FEF788FDF2
:103E30004FF4085098F80840ADF83000504678210B
:103E40000CAA042307F108058DF832608DF8336061
:103E5000CDF80090FEF774FD4FF40450ADF830003B
:103E6000504678210CAA042303958DF832508DF822
:103E70003350CDF80090FEF763FD40208DF8300000
:103E8000504678210CAA02238DF83140CDF80090DD
:103E9000FEF756FD751C98F809404FF408560CAA19
:103EA000504678210423C346ADF830608DF8325077
:103EB0008DF83350CDF80090FEF742FD4FF40450DA
:103EC0008DF832708DF833700CAFADF8300050467D
:103ED00078213A460423CDF80090FEF731FD4020CA
:103EE0000DF130088DF8300050467821424602230B
:103EF0008DF83140CDF80090FEF722FDADF830602E
:103F00000CAE9BF80A4050467821324604238DF8C7
:103F100032508DF83350CDF80090FEF711FD4FF47C
:103F20000450ADF830000A9878218DF832008DF8F1
:103F3000330050463A460423CDF80090FEF700FDCA
:103F400040208DF8300050467821424602238DF8FB
:103F50003140CDF80090FEF7F3FC4FF408509BF889
:103F60000B40ADF8300050467821324604238DF8DE
:103F700032508DF83350CDF80090FEF7E1FC4FF44D
:103F80000450ADF83000099878218DF832008DF892
:103F9000330050463A460423CDF80090FEF7D0FC9B
:103FA00040208DF8300050467821424602238DF89B
:103FB0003140CDF80090FEF7C3FC4FF408509BF859
:103FC0000C40ADF8300050467821324604238DF87D
:103FD00032508DF83350CDF80090FEF7B1FC4FF41D
:103FE0000450ADF83000089878218DF832008DF833
:103FF000330050463A460423CDF80090FEF7A0FC6B
:1040000040208DF8300050467821424602238DF83A
:104010003140CDF80090FEF793FC4FF408509BF828
:104020000D40ADF8300050467821324604238DF81B
:1040300032508DF83350CDF80090FEF781FC4FF4EC
:104040000450ADF83000079878218DF832008DF8D3
:10405000330050463A460423CDF80090FEF770FC3A
:1040600040208DF8300050467821424602238DF8DA
:104070003140CDF80090FEF763FC4FF408509BF8F8
:104080000E40ADF8300050467821324604238DF8BA
:1040900032508DF83350CDF80090FEF751FC4FF4BC
:1040A0000450ADF83000069878218DF832008DF874
:1040B000330050463A460423CDF80090FEF740FC0A
:1040C00040208DF8300050467821424602238DF87A
:1040D0003140CDF80090FEF733FC4FF408509BF8C8
:1040E0000F40ADF8300050467821324604238DF859
:1040F00032508DF83350CDF80090FEF721FC4FF48C
:104100000450ADF83000059878218DF832008DF814
:10411000330050463A460423CDF80090FEF710FCD9
:1041200040208DF8300050467821424602238DF819
:104130003140CDF80090FEF703FC4FF408509BF897
:104140001040ADF8300050467821324604238DF8F7
:1041500032508DF83350CDF80090FEF7F1FB4FF45C
:104160000450ADF83000049878218DF832008DF8B5
:10417000330050463A460423CDF80090FEF7E0FBAA
:1041800040208DF8300050467821424602238DF8B9
:104190003140CDF80090FEF7D3FB4FF408509BF868
:1041A0001140ADF8300050467821324604238DF896
:1041B00032508DF83350CDF80090FEF7C1FB4FF42C
:1041C0000450ADF83000039878218DF832008DF856
:1041D000330050463A460423CDF80090FEF7B0FB7A
:1041E00040208DF830008DF831405046782142460D
:1041F0000223CDF80090FEF7A3FB0DB0BDE8F08FD1
:10420000C0B2C0EB00108000411C089146F27E2134
:1042100040F23C2A2A460024C0F60001C2F2000AFD
:1042200009900B961FFA80F84FF408500CAD02EB82
:10423000040911F808B0ADF830008DF832608DF83F
:1042400033605046782117462A4604236426009698
:10425000FEF776FB4FF40450ADF83000504678215D
:104260002A4604238DF832908DF833900096FEF79D
:1042700067FB40208DF83000504678212A46022303
:104280008DF831B00096FEF75BFB46F27E210B9E67
:1042900001343A46C0F60001142C08F10300C1D1E4
:1042A000701C0A90089840F23C284FF00009C2F2B6
:1042B00000084FF0640B00BF85B24FF40850ADF812
:1042C00030000A980CAC02EB090611F805A08DF835
:1042D00032008DF833004046782122460423CDF881
:1042E00000B0FEF72DFB4FF40450ADF8300040460F
:1042F0007821224604238DF832608DF83360CDF8A2
:1043000000B0FEF71DFB40208DF8300040467821BC
:10431000224602238DF831A0CDF800B0FEF710FB45
:1043200046F27E2109F101093A46C0F60001B9F1D1
:10433000140F05F10300BFD109980B9B40F23C26F6
:1043400040F00200023300279046C2F200064FF010
:10435000640B0B931FFA80FA4FF40850ADF830004D
:104360000B980CAC11F80A908DF832008DF83300E0
:10437000304678212246042308EB0705CDF800B02B
:10438000FEF7DEFA4FF40450ADF8300030467821E5
:10439000224604238DF832508DF83350CDF800B00A
:1043A000FEF7CEFA40208DF83000304678212246C4
:1043B00002238DF83190CDF800B0FEF7C1FA46F235
:1043C0007E210137C0F60001142F0AF10300C1D18C
:1043D0000DB0BDE8F08F000070B50C46012A05460F
:1043E00026D0022A12D0032A34D1187890B35E1E48
:1043F000E1B2C3B228460322FFF72CFAB078143496
:10440000002806F10106F3D124E000BF187808B3B4
:104410005E1E00BFE1B2C3B228460222FFF71AFABD
:10442000B0780934002806F10106F3D112E000BF8C
:104430001878002808BF70BD5E1E00BFE1B2C3B28D
:1044400028460122FFF706FAB0780634002806F164
:104450000106F3D170BD0000704700002DE9F04760
:1044600092B040F23928C2F2000898F80030013BBF
:10447000032B00F27F80DFE803F00383274D00BFAA
:1044800047F6AC40C0F6000090E84E00D0E9045476
:104490000DF1040ED0E906C78EE84E00CDE90554B3
:1044A00000F12006D0E90C504ECE01AC0DF1240EE7
:1044B000CDE90D5020468EE84E00CDE907C7FBF749
:1044C00055FE81B220468EE047F6E442C0F6000277
:1044D00001AD044628460E4611464422FBF722FE53
:1044E0002846FBF743FE81B2284600F0FBF971082D
:1044F000204600F0F7F94BF6AA30C0F2CC0000904D
:104500006846032100F0EEF9A6EB560104EB5600D5
:1045100089B268E072B3384A019237A2D2E9013712
:1045200002F1140ED2E903659EE81050CDE902377E
:1045300002F12407D2F82090CDE904650694F8CF63
:10454000926BCDE909930BABF0C301AC0546204655
:10455000CDE907CE0F920E46FBF708FE81B220464A
:1045600000F0C0F94FF47A6000F09CFB2846314619
:1045700039E000BF12B0BDE8F04700F0B3B900BFAA
:104580002C4A01922BA202F1140ED2E90137D2E992
:1045900003659EE8105002F1240AD2F82090CDE97C
:1045A0000237CDE9046506949AE8F804D26BCDE9A8
:1045B00009930BAB83E8F00401AC05462046CDE936
:1045C00007CE10920E46FBF7D1FD81B2204600F0D7
:1045D00089F928463146022E05D3421812F8023CCA
:1045E000DB4302F8023C00F07DF9002088F800006F
:1045F00012B0BDE8F08700BF0D0A5B535633202D83
:10460000204D4F44554C45204C4F495D204461207E
:104610006769752041434B206C61692034206769CC
:104620006179202844656C61792041434B29210D33
:104630000A0000000D0A5B535633202D204D4F44D5
:10464000554C45204C4F495D2044612064616F20EA
:1046500062697420436865636B73756D2028436FCE
:104660007272757074205061636B657429210D0A34
:10467000000000003038042888BF704770B58EB045
:10468000DFE800F004A24A76220000BF78480DF16E
:10469000040C009076A0041D1ECC40698CE81E001E
:1046A0006C4605902046FBF761FD81B2204600F084
:1046B00019F940F23920C2F20000002101700EB059
:1046C000BDE87040704700BF5148009050A0061DE3
:1046D0004ECE00F1140E046A0191816A406A9EE890
:1046E0002050CDE9084005A86C4680E820502046BF
:1046F0000292039304960A91FBF738FD81B220469B
:1047000000F0F0F840F23920C2F2000004210170FC
:104710000EB0BDE87040704745F65810C0F6000076
:10472000D0E9045490E84E00D0E906CECDE9045417
:1047300000F120058DE84E003ECD406BCDE906CE60
:104740000DF1200C8CE83E006C460D902046FBF7E6
:104750000DFD81B2204600F0C5F840F23920C2F2CA
:104760000000022101700EB0BDE87040704700BF2C
:104770003248009031A0061D4ECE039300F1240371
:10478000046A019102920ECB00F1140E006B9EE8B8
:104790002050CDE908416C460C90204604960595C2
:1047A000CDE90A23CDE906CEFBF7E0FC81B2204635
:1047B00000F098F840F23920C2F2000003210170A5
:1047C0000EB0BDE87040704745F62C10C0F60000F2
:1047D00090E81E50D0E906568DE81E50826AD0E956
:1047E00008106C46CDE9081020460A92CDE906561D
:1047F000FBF7BCFC81B2204600F074F840F239208F
:10480000C2F20000012101700EB0BDE87040704797
:104810000D0A5B5356335D204D4F4445204C4F49A4
:104820003A205345204C414D205452452041434BA2
:10483000203420474941592E0D0A00000D0A5B53D0
:1048400056335D204D4F4445204C4F493A20534547
:10485000204348454E205241432056414F20474F68
:10486000492054494550205448454F2E0D0A000018
:104870000D0A5B5356335D20544154204348454E46
:10488000204C4F492E0D0A007047000040F2902046
:10489000C2F20000016801310160FEF775B9000045
:1048A0007047000040F20800C2F20000006844F6C1
:1048B000D351C1F26201A0FB01014FF0FF3000EBC8
:1048C00091104EF21001CEF2000148600020886085
:1048D000072008607047000040F29020C2F20000FC
:1048E000006870470246002818BF01200B460029C7
:1048F00018BF01231840012818BF7047B0B543F610
:104900000003C4F20103042901F0030C48D2002182
:10491000BCF1000F34D01D682D0609D41D682D068A
:104920005CBF1D685FEA056502D41D682D06F2D5DF
:10493000555CBCF1010F5D6022D01D682D0609D4C5
:104940001D682D065CBF1D685FEA056502D41D6801
:104950002D06F2D511444A78BCF1020F5A600FD0EF
:104960001A68120609D41A6812065CBF1A685FEA50
:10497000026202D41A681206F2D58978596000BF23
:104980001968490609D4196849065CBF19685FEAC5
:10499000416102D419684906F2D5BDE8B0407047BC
:1049A00021F0030E002104E0145D043171455C60C8
:1049B000AED01C68240606D41C6824065CBF1C68A4
:1049C0005FEA046434D5545C5C6041F001041D6806
:1049D0002D0609D41D682D065CBF1D685FEA0565BC
:1049E00002D41D682D06F2D5145D5C6041F002040E
:1049F0001D682D060AD41D682D065CBF1D685FEA80
:104A0000056503D41D682D06F2D500BF145D5C60FA
:104A100041F003041D682D06C6D41D682D065CBF39
:104A20001D685FEA0565BFD41D682D06F2D5BBE79A
:104A30001C682406BDD5C6E770B5F2B040F23C1440
:104A4000C2F200042146FDF787FA012822D120781E
:104A5000022863D001283BD0D0B940F21C05C2F235
:104A6000000563782A78934276D10DF5997464A194
:104A700020461A4600F0A6FA2046FBF777FB81B2E3
:104A80002046FFF72FFF287801302870010677D1E4
:104A900072B070BD0228FBD120780028F8D162786E
:104AA00047F6E9310DF59975C0F60001284600F08A
:104AB00089FA2846FBF75AFB81B22846FFF712FF16
:104AC000617802208DF835008DF836105EE000BF69
:104AD00064782046FCF760FF40F21C06C2F2000634
:104AE00070788442D4D3B0788442D1D20DF13505A8
:104AF00034A12846224600F065FA2846FBF736FB2B
:104B000081B22846FFF7EEFE601CB178C2B28A423D
:104B1000707051D10020F07072B070BD6078FCF7F9
:104B200047FF627847F62B310DF13504C0F60001DE
:104B3000204600F047FA2046FBF718FB81B22046DA
:104B4000FFF7D0FE40F21C00C2F2000041788170F5
:104B50000021C17072B070BD47F66E310DF59974C9
:104B6000C0F60001204600F02DFA2046FBF7FEFAC1
:104B700081B22046FFF7B6FE287801063FF488AFE1
:104B8000012101388DF835108DF8360000200DF127
:104B900003048DF83700ADF800000DF135006A46CA
:104BA0002146FDF745FBBDF8001020460122FFF726
:104BB00055FC72B070BD00BFFFF78EFEB06072B0E2
:104BC00070BD00BF0D0A5B4D41434820415D204E42
:104BD00068616E2064756F632041434B20474F50DE
:104BE0002028536571202564292E205452554F5496
:104BF0002043554120534F204C454E210D0A0000C3
:104C00000D0A5B4D41434820425D204E68616E2095
:104C100044554E472054485520545520285365711B
:104C2000202564292E204C617920726120786169E9
:104C3000210D0A0041F21800C4F20200016844F29A
:104C400004021143016040F60400C4F2010001684F
:104C500042F22C0221F47F610160016841F4966107
:104C6000016043F60C00C4F2010040F2712140F8EB
:104C7000041C0168114301604EF20410CEF20000E2
:104C8000202101607047000043F60000C4F20100DB
:104C90000168890658BF70474068C0B2FFF7CCBEB4
:104CA000FEE70000002808BF704780B581B010F013
:104CB000030C01466ED000210091009941F26F7300
:104CC0009942A0F1010119D841F2707E009A013297
:104CD0000092009A9A4211D8009A01320092009AEA
:104CE0009A420BD8009A01320092009A9A4205D853
:104CF000009A01320092009A7245E7D3BCF1010F8D
:104D000048D000210091009941F26F739942A0F1BF
:104D1000020119D841F2707E009A01320092009A85
:104D20009A4211D8009A01320092009A9A420BD806
:104D3000009A01320092009A9A4205D8009A0132F4
:104D40000092009A7245E7D3BCF1020F22D00021F5
:104D50000091009941F26F729142A0F1030119D8BC
:104D600041F2707C009B01330093009B934211D869
:104D7000009B01330093009B93420BD8009B0133AF
:104D80000093009B934205D8009B01330093009B46
:104D90006345E7D3042803D201B0BDE880407047E3
:104DA0004FF0000C41F26F7241F2707302E000BFED
:104DB0000439F1D0CDF800C00098904218D800BF57
:104DC0000098013000900098904211D8009801306E
:104DD0000090009890420BD8009801300090009805
:104DE000904205D800980130009000989842E7D38F
:104DF000CDF800C00098904218D800BF009801304C
:104E000000900098904211D80098013000900098CE
:104E100090420BD80098013000900098904205D83D
:104E200000980130009000989842E7D3CDF800C078
:104E30000098904218D800BF009801300090009868
:104E4000904211D8009801300090009890420BD801
:104E50000098013000900098904205D800980130E9
:104E6000009000989842E7D3CDF800C00098904297
:104E70009ED800BF0098013000900098904297D8CB
:104E8000009801300090009890423FF691AF009852
:104E900001300090009890423FF68AAF00980130B0
:104EA000009000989842E5D382E7000090B0FDF7AB
:104EB00079FE00240120CDE90B44CDE90944069098
:104EC0000A904FF4E0104FF4803102250F9006A8AD
:104ED000CDE90714CDE90D51FDF7ECFF20B1EFF35B
:104EE000108072B6FEE700BF0F20CDE901054FF438
:104EF0008060CDE9040401A802210394FDF7E8FED7
:104F000020B1EFF3108072B6FEE700BF41F2180047
:104F1000C4F20200016848F2000241F02001016081
:104F20000168C8F6880201F020010691069901681F
:104F3000002341F00401016001684FF4804501F055
:104F4000040106910699016841F0080101600168B9
:104F500001F0080106910699016841F0080101601D
:104F600040F60440C4F2010001686FF31F31016094
:104F7000016811430160816848F2A06241F4784100
:104F8000816040F23C2045F20041C2F20000C4F2D0
:104F90000001C0F2010280E80E00C0E90335C0E95B
:104FA0000533C0E90733FDF719FC28B1EFF3108092
:104FB00072B600BFFEE700BFFBF7B8FCFBF7F8FCDA
:104FC000FCE700000FB4084B10B504A902AA03982F
:104FD00000F0DEF8044602A9002000F070FC204634
:104FE00010BC5DF814FB0000BF58000802E008C8C0
:104FF000121F08C1002AFAD170477047002001E053
:1050000001C1121F002AFBD1704700002DE9FF5F8C
:1050100082B00021DDE90430020DDDF840B0034329
:1050200018D044F61050A2F2FF32424315141198E2
:1050300001281FD0A5EB0B00401C5FEA000A4FF0CF
:1050400000064E4FDFF83891B046504615D5CAF1EC
:10505000000413E0119801244AA3012801D16FEA4A
:105060000B010298119AC0E90031C0E9024206B072
:10507000BDE8F09FCBF10000DFE704460021404A85
:10508000491842EB0450CDE9001012E0E00707D0C8
:1050900032463B4640464946FBF790FA80468946F1
:1050A00032463B4610461946FBF788FA06460F463D
:1050B0006410002CEAD1DDE90401DDE90023BAF136
:1050C000000F06DAFBF77AFA42464B46FBF776FA10
:1050D00005E0FBF7E5FA42464B46FBF7E1FA0446EA
:1050E0000E460022284BFBF763FB03D84FF0FF303E
:1050F000014607E00022254B20463146FBF7B7F971
:10510000FBF73DFB102409E0002C0ADB0A220023F8
:10511000FBF745F9039B30321A55641E50EA010231
:10512000F2D1641C039AC4F111031444119A012AA8
:1051300003D0012208430DD10AE0084304D0002027
:105140004FF0110B119072E7A3EB0B056D1E0DE0F4
:105150005B4504DD4FF0000205F1010504E003DAD0
:105160004FF00002A5F10105002AECD00298119938
:10517000C0E90231C0E9004579E7000000001440B1
:105180000000F03F300000000000F0430000E03F6E
:105190002DE9FF4F95B09B468946064600250FE254
:1051A000252877D100242746F84A0121059400E0FC
:1051B000044316F8013F203B01FA03F01042F7D1F7
:1051C00030782A2811D06FF02F033078A0F1300208
:1051D000092A16D8059A44F0020402EB820203EB76
:1051E00042021044761C0590EFE759F8042B059213
:1051F000002A03DA504244F40054059044F00204BB
:10520000761C30782E2816D116F8010F44F00404CD
:105210002A280DD06FF02F023078A0F13003092B2F
:1052200009D807EB870302EB4303C718761CF3E7A3
:1052300059F8047B761C30786C280FD006DC4C289B
:1052400017D068280DD06A2814D104E0742810D033
:105250007A280FD10DE044F400140AE044F48014DD
:1052600001E044F440147278824202D104F58014C3
:10527000761C761C307866280BD013DC582877D043
:1052800009DC002875D04528F6D04628F4D04728F8
:105290001AD19DE118E0632835D0642879D06528BB
:1052A00012D195E1702873D008DC6728F1D0692805
:1052B0006FD06E280DD06F2806D1B5E073282CD0A2
:1052C000752875D0782874D05A46179990476D1C68
:1052D00075E1C4F30250022809D003280DD0D9F893
:1052E000001004280DD00D6009F1040967E1D9F818
:1052F0000010EA17C1E90052F6E7D9F800100D8056
:10530000F2E70D70F0E719F8041B8DF8001000208B
:105310008DF80100EA46012003E059F804AB4FF094
:10532000FF3061074FF0000102D40DE008F10101E8
:105330008846B9420FDA8045F8DB1AF808100029D0
:10534000F4D108E008F1010188468142FADB1AF83D
:1053500008100029F6D105985B46A0EB0807214606
:105360003846179A00F094FA284400EB080507E045
:105370004DE029E10DE01AF8010B5A4617999047C4
:10538000B8F10108F7D25B4621463846179A13E177
:1053900042E00A220092C4F302524FF0000A022AAD
:1053A00008D059F804CB032A4FEAEC710AD00DE07B
:1053B00029E02AE009F1070121F00702F2E802C121
:1053C000914609E00FFA8CFC4FEAEC71042A03D1F4
:1053D0004FFA8CFC4FEAEC71002907DA0A460021EB
:1053E000DCF1000C61EB02012D2202E0220504D564
:1053F0002B228DF80420012203E0E20701D02022B5
:10540000F7E7904659E00A2102E010220DE0102152
:105410004FF0000A00910BE010224FF0000A44F018
:1054200004040827009203E008224FF0000A0092CB
:10543000C4F30252022A05D059F804CB0021032AF2
:1054400008D009E009F1070121F00702F2E802C1E2
:10545000914605E01FFA8CFC042A01D10CF0FF0CE8
:105460004FF00008220728D5702806D0009B83F053
:10547000100353EA0A0305D00EE040228DF8042001
:10548000012208E05CEA010206D030228DF80420F7
:105490008DF8050002229046009B83F0080353EA32
:1054A0000A030AD15CEA010201D1620705D5302264
:1054B0008DF804204FF001087F1E582804D034A036
:1054C00003900EA802900DE036A0F9E7534660461F
:1054D000009AFAF764FF84460398825C0298401EA3
:1054E000029002705CEA0100F0D1029806A9081A45
:1054F00000F1200A600702D524F4803400E001277F
:10550000574502DDA7EB0A0000E0002000EB0A018E
:10551000009005984144401A0590E00306D45B468C
:105520002146179A059800F0B3F90544002706E0D4
:1055300001A85A46C05D179990476D1C7F1C4745CE
:10554000F6DBE0030CD55B462146179A059800F080
:105550009FF9054404E030205A46179990476D1C86
:105560000099481E00900029F5DC08E00298029995
:105570005A460078491C0291179990476D1CBAF160
:105580000001AAF1010AF1DC65E10000092801002F
:1055900030313233343536373839616263646566A9
:1055A000000000003031323334353637383941426B
:1055B000434445460000000000F058F90544761CBD
:1055C000307800287FF4ECAD19B02846BDE8F08FA4
:1055D000620700D4062709F1070222F0070CFCE855
:1055E0000223E14603F000485FEA080C02D00FF204
:1055F000702C0DE05FEA045C02D50FF2682C07E026
:105600005FEAC47C02D00FF2602C01E0AFF2700CB4
:105610004FF0FF3823F00043CDF850C065280CD080
:1056200006DC452809D046281DD047283DD13DE05D
:10563000662818D067287ED138E00021112F01DBC1
:10564000112000E0781CCDE9000106A90EA8FFF7A3
:10565000DDFCDDE90F010E9A03910021009207F1B4
:10566000010A04914DE04FF000400097CDE9011090
:1056700006A90EA8FFF7CAFCDDE90F0203920E9BF4
:1056800011990022DDF80CA00093049211B9791C45
:1056900000EB010AB7EB0A0004D4C0F1FF3007F1B8
:1056A000010A0490AAEB0700019044E0012F00DA00
:1056B00001270021112F01DD112000E03846CDE93E
:1056C000000106A90EA8FFF7A1FCDDE90F010E9A63
:1056D0000391002104910092BA4621070CD403994A
:1056E000514500DA8A46BAF1010F05DD009AAAF1A8
:1056F0000101515C302908D0B84202DA10F1040FE0
:1057000006DA0121CDE9011015E0AAF10101E9E76E
:10571000002805DC049901440491AAEB000102E091
:10572000411C514500DD8A460499401A401C0190F5
:105730004FF000400290200704D40198504501DB4F
:10574000CDF8048000208DF84F0002980DF14F072E
:10575000B0F1004F25D02B200E9002984FF0020898
:1057600000280CDA404202902D200E9007E00A211A
:105770000298FAF7FEFD3031029007F8011DB8F1EA
:105780000001A8F10108F2DC02980028EFD1791E8F
:105790000E980870307800F0200040F0450007F8BF
:1057A000020D12A8C01B00F107081498007800B180
:1057B000012000EB0A01019801EBE07105984144DA
:1057C000401A401E0590E00306D45B462146179A16
:1057D000059800F05DF805441498007818B15A4611
:1057E000179990476D1CE00324D55B462146179A14
:1057F000059800F04DF805441CE00498002807DBEC
:10580000DDE90301884203DD0098405C179901E05F
:10581000179930205A469047049805F10105401C1D
:1058200004900198401E019004D12E205A461799E9
:1058300090476D1CBAF10001AAF1010ADDDC05E018
:1058400017F8010B5A46179990476D1CB8F10001E3
:10585000A8F10108F4DC5B462146179A0598ABE6EF
:105860002D0000002B000000200000002DE9F04179
:10587000044600251E461746880404D405E0394630
:105880002020B0476D1C641EF9D52846BDE8F08184
:105890002DE9F041044600251E469046C80301D577
:1058A000302700E02027880404D505E0414638462B
:1058B000B0476D1C641EF9D52846BDE8F0810A6822
:1058C000531C0B60107070470D0A5B484F414E200F
:1058D0005448414E485D2044612067756920786FC7
:1058E0006E6720746F616E20626F203820676F6969
:1058F00020476F2D4261636B2D4E210D0A00000081
:105900000D0A5B52455345545D2042617420646129
:105910007520706869656E20476F2D4261636B2D3D
:105920004E206D6F692E2E2E0D0A00000D0A5B535E
:1059300056335D204D4F4445204C4F493A20534546
:1059400020424F20474F4920544945502054484554
:105950004F2E0D0A000000000D0A5B5356335D20E8
:105960004D4F4445204C4F493A2053452044414F28
:105970002042495420434845434B53554D20474FFF
:10598000492054494550205448454F2E0D0A0000E7
:1059900000000000000000000102030406070809DF
:1059A00000000000010203040000000000000000ED
:1059B000002F000000000700070000147F147F1470
:1059C00000242A7F2A1200626408132300364955F6
:1059D000225000000503000000001C2241000000CE
:1059E00041221C000014083E08140008083E080864
:1059F000000000A0600000080808080800006060BF
:105A00000000002010080402003E5149453E0000FD
:105A1000427F4000004261514946002141454B31DF
:105A2000001814127F10002745454539003C4A49AB
:105A3000493000017109050300364949493600061D
:105A40004949291E00003636000000005636000085
:105A50000008142241000014141414140000412200
:105A6000140800020151090600324959513E007CD8
:105A70001211127C007F49494936003E41414122C2
:105A8000007F4141221C007F49494941007F0909AB
:105A90000901003E4149497A007F0808087F00005B
:105AA000417F4100002040413F01007F0814224116
:105AB000007F40404040007F020C027F007F0408CE
:105AC000107F003E4141413E007F09090906003E2A
:105AD0004151215E007F0919294600464949493153
