:020000040800F2
:10000000900A0020010100088D1F0008691B0008EC
:10001000891F00084D020008193500080000000083
:100020000000000000000000000000001131000886
:10003000DD07000800000000E12C00081531000871
:100040001B0100081B0100081B0100081B01000820
:100050001B0100081B0100081B0100081B01000810
:100060001B0100081B0100081B0100081B01000800
:100070001B0100081B0100081B0100081B010008F0
:100080001B0100081B0100081B0100081B010008E0
:100090001B0100081B0100081B0100081B010008D0
:1000A0001B0100081B0100081B0100081B010008C0
:1000B0001B0100081B0100081B0100081B010008B0
:1000C0001B0100081B0100081B0100081B010008A0
:1000D0001B010008013500081B0100081B01000876
:1000E0001B0100081B0100081B010008DFF80CD0F1
:1000F00000F074F8004800471D350008900A002001
:100100000648804706480047FEE7FEE7FEE7FEE7B1
:10011000FEE7FEE7FEE7FEE7FEE7FEE7293100081F
:10012000ED00000840EA01039B0703D009E008C97D
:10013000121F08C0042AFAD203E011F8013B00F8AC
:10014000013B521EF9D27047D2B201E000F8012BF8
:10015000491EFBD270470022F6E710B513460A4647
:1001600004461946FFF7F0FF204610BD421C10F868
:10017000011B0029FBD1801A70472DE9F05F05466D
:10018000002092469B4688460646814640241BE056
:10019000284641464746224600F047F853465A460D
:1001A000C01A914110D311461846224600F02EF88D
:1001B0002D1A67EB01084F4622460120002100F06E
:1001C00025F817EB00094E41201EA4F10104DFDCE5
:1001D000484631462A464346BDE8F09F1CB50948CB
:1001E0000090094801900546009C06E0E06840F058
:1001F000010394E8070098471034AC42F6D3FFF7A8
:1002000079FF0000C0600008E0600008202A04DBDD
:10021000203A00FA02F1002070479140C2F1200319
:1002200020FA03F3194390407047202A04DB203A58
:1002300021FA02F00021704721FA02F3D040C2F106
:10024000200291400843194670470000FEE7000075
:100250002DE9F04184B0044600200290022040F6CF
:10026000000500900120C4F201050190032041F235
:100270000406039069462846CEF2000600F0D8FD39
:1002800028460221002200F0E1FE142000F0BCFD0F
:1002900028460221012200F0D9FE40F20801C2F2F4
:1002A0000001306809684DF68362C4F21B32A1FB7D
:1002B0000212910C0901A1EB924149003268121A15
:1002C0008A420BD23268121A8A4207D23268121A54
:1002D0008A4203D23268121A8A42EFD300200221E6
:1002E0000390CDE9001001204DF6F006029069461A
:1002F0002846CFF6FF7600F09BFD374628460221C0
:1003000000F09EFE012803D10137F7D309E000BFBA
:10031000374600BF2846022100F092FE40B901375F
:10032000F8D3002004B0BDE8F08100BF0136F8D258
:100330002846022100F084FE0128F7D000F022F8C0
:10034000054600F01FF8804600F01CF8074600F054
:1003500019F8064600F016F808EB05013944314457
:10036000C9B2081AB0FA80F04FEA50104FF00001FD
:1003700014BF0D46394625706170A07004B0BDE809
:10038000F08100002DE9F04F81B04DF6F00BCFF673
:10039000FF7B40F60004C4F201045D4620460221C2
:1003A00000F04EFE30B90135F8D30020C0B201B0E4
:1003B000BDE8F08F41F2040640F20808CEF20006D4
:1003C000C2F200083068D8F800104DF6836AC4F213
:1003D0001B3AA1FB0A12910C01EB8101C90000BF7D
:1003E0003268121A8A420BD23268121A8A4207D233
:1003F0003268121A8A4203D23268121A8A42EFD342
:100400002046022100F01CFE00275D46012808BF9F
:100410006FF07F072046022100F012FE012807D16D
:100420000135F7D30020C0B201B0BDE8F08F00BFA6
:100430005D4600BF2046022100F002FE30B90135C2
:10044000F8D30020C0B201B0BDE8F08F3068D8F812
:100450000010A1FB0A12910C01EB8101C90000BF41
:100460003268121A8A420BD23268121A8A4207D2B2
:100470003268121A8A4203D23268121A8A42EFD3C1
:100480002046022100F0DCFD0138B0FA80F040097E
:1004900047EA80175D4600BF2046022100F0D0FDEC
:1004A000012807D10135F7D30020C0B201B0BDE863
:1004B000F08F00BF5D4600BF2046022100F0C0FD66
:1004C00030B90135F8D30020C0B201B0BDE8F08FDB
:1004D0003068D8F80010A1FB0A12910C01EB8101E1
:1004E000C90000BF3268121A8A420BD23268121A4F
:1004F0008A4207D23268121A8A4203D23268121A2A
:100500008A42EFD32046022100F09AFD0138B0FA6A
:1005100080F0400947EA40195F4600BF20460221AB
:1005200000F08EFD012805D101374FF00000F5D312
:100530003CE700BF5F4600BF2046022100F080FD7F
:1005400020B901374FF00000F6D32FE73068D8F814
:100550000010A1FB0A12910C01EB8101C900326865
:10056000121A8A420BD23268121A8A4207D23268B1
:10057000121A8A4203D23268121A8A42EFD32046F4
:10058000022100F05DFD0138B0FA80F0400949EA2F
:1005900000195F462046022100F052FD012805D1D6
:1005A00001374FF00000F5D300E700BF5F4620465B
:1005B000022100F045FD28B901374FF00000F6D3C5
:1005C000F4E600BF3068D8F80010A1FB0A12910CC5
:1005D00001EB8101C9003268121A8A420BD23268DB
:1005E000121A8A4207D23268121A8A4203D2326839
:1005F000121A8A42EFD32046022100F021FD013871
:10060000B0FA80F0400949EAC0095F46204602215D
:1006100000F016FD012805D101374FF00000F5D399
:10062000C4E600BF5F462046022100F009FD28B95C
:1006300001374FF00000F6D3B8E600BF3068D8F8B5
:100640000010A1FB0A12910C01EB8101C900326874
:10065000121A8A420BD23268121A8A4207D23268C0
:10066000121A8A4203D23268121A8A42EFD3204603
:10067000022100F0E5FC0138B0FA80F0400949EAB7
:1006800080095F462046022100F0DAFC012805D1EE
:1006900001374FF00000F5D388E600BF5F462046E3
:1006A000022100F0CDFC28B901374FF00000F6D34D
:1006B0007CE600BF3068D8F80010A1FB0A12910C4C
:1006C00001EB8101C9003268121A8A420BD23268EA
:1006D000121A8A4207D23268121A8A4203D2326848
:1006E000121A8A42EFD32046022100F0A9FC0138F9
:1006F000B0FA80F0400949EA40095F4620460221ED
:1007000000F09EFC012805D101374FF00000F5D321
:100710004CE600BF5F462046022100F091FC28B95C
:1007200001374FF00000F6D340E600BF3068D8F83C
:100730000010A1FB0A12910C01EB8101C900326883
:10074000121A8A420BD23268121A8A4207D23268CF
:10075000121A8A4203D23268121A8A42EFD3204612
:10076000022100F06DFC0138B0FA80F0400949EA3E
:1007700000062046022100F063FC012806D11BF18F
:10078000010B4FF00000F4D310E600BF3046C0B2BA
:1007900001B0BDE8F08F000081B04EF6FC50CEF203
:1007A0000000016841F08071016041F20000CEF26A
:1007B000000000214160016841F00101016041F247
:1007C0001800C4F20200016841F0040101600068F1
:1007D00000F004000090009801B0704770470000DE
:1007E0002DE9F04F83B040F2100EC2F2000E9EF8D9
:1007F00000307E2840F0E880012B40F0F380BEF806
:100800000280B8F1050FC0F0ED8040F2840BC2F217
:10081000000B9BF802A0A8F10503534540F0E280CD
:100820009BF8000008EB0B0301909BF80100ABF173
:100830000207029013F8010CA8F102031BF80390C1
:1008400023F001044FF6FF7341F22105009000BF31
:1008500017F8020F83EA002003B24FEA400C002B86
:1008600048BF85EA400C0FFA8CF04FEA4C03002891
:1008700048BF85EA4C0318B25A00002848BF85EAF1
:10088000430210B25300002848BF85EA420318B261
:100890005A00002848BF85EA430210B253000028DE
:1008A00048BF85EA420318B25A00002848BF85EACB
:1008B000430210B2002878784FEA420348BF85EA25
:1008C000420383EA002002B24300002A48BF85EABF
:1008D000400318B25A00002848BF85EA430210B20C
:1008E0005300002848BF85EA420318B25A00002886
:1008F00048BF85EA430210B25300002848BF85EA8A
:10090000420318B25A00002848BF85EA430210B2D9
:100910005600002848BF85EA420630B2730000281E
:1009200048BF85EA4603023C92D15FEAC87034D0E2
:10093000B87841F2210483EA002002B24300002A81
:1009400048BF84EA400318B25A00002848BF84EA2E
:10095000430210B25300002848BF84EA420318B291
:100960005A00002848BF84EA430210B2530000280E
:1009700048BF84EA420318B25A00002848BF84EAFC
:10098000430210B25700002848BF84EA420738B239
:100990007B00002848BF84EA470300989AB240EAE7
:1009A0000920019B904202980B70487058D1BAF10F
:1009B000000F81F802A076D0BAF1040F0AF0030705
:1009C00050D2002360E000BF022B15D0012B2AD1AA
:1009D0007D281BD102208EF80000002003B0BDE866
:1009E000F08F00BF00200121AEF802008EF8001049
:1009F00003B0BDE8F08F00BF5E2819D1BEF8020039
:100A0000B0F5827F24D27E211AE000BFBEF802102A
:100A10008A08402A07D84A1CAEF8022040F2840215
:100A2000C2F200025054002003B0BDE8F08F00BFB6
:100A30005D280DD1BEF802008108402908D87D212B
:100A4000421CAEF8022040F28402C2F200021154AD
:100A500001208EF80000002003B0BDE8F08F00BF39
:100A6000022021E00AF0FC06002300BF0BEB03008C
:100A7000C278CD18EA70027904332A7142799E4215
:100A80006A718079A871F1D16FB103EB0B00C27864
:100A90000331012FCA5406D0027919444A70022F3B
:100AA0001CBF40798870012000218EF80010AEF83C
:100AB000021003B0BDE8F08F2DE9F04FC1B00D4634
:100AC0007E21297090F8029001889046B9F1000FBC
:100AD000ADF800108DF8029005D0C11C68460330B7
:100AE0004A46FFF71FFB09F1030C2CF001004342BB
:100AF0004FF6FF746FF00102EA4641F2210700BF92
:100B00000AEB02008678C17884EA062006B2440027
:100B1000002E48BF87EA400420B26600002848BF84
:100B200087EA440630B27400002848BF87EA4604CA
:100B300020B26600002848BF87EA440630B274003D
:100B4000002848BF87EA460420B26600002848BF54
:100B500087EA440630B27400002848BF87EA46049A
:100B600020B26600002848BF87EA440686EA0120D2
:100B700001B24600002948BF87EA400630B2710042
:100B8000002848BF87EA460108B24E00002848BF47
:100B900087EA410630B27100002848BF87EA460163
:100BA00008B24E00002848BF87EA410630B2710003
:100BB000002848BF87EA460108B24E00002848BF17
:100BC00087EA410630B202327400002803EB0200CB
:100BD00048BF87EA4604023092D15FEACC7036D033
:100BE0000AEB0200807841F2210184EA002002B27F
:100BF0004300002A48BF81EA400318B25A00002887
:100C000048BF81EA430210B25300002848BF81EA7E
:100C1000420318B25A00002848BF81EA430210B2CA
:100C20005300002848BF81EA420318B25A00002846
:100C300048BF81EA430210B25300002848BF81EA4E
:100C4000420318B25C00002848BF81EA4304A0B206
:100C5000000A0AEB0C010AF80C0009F105004C70BF
:100C600000F0030C20F0030B012300227D244FF041
:100C70005D0E4FF05E0907E088B2EC54BB1C05F82E
:100C800000900432934555D01AF80270591C7D2FFC
:100C900098B207D07E2F0BD12C5488B29F1C05F838
:100CA000009007E02C5488B29F1C05F800E001E09A
:100CB0002F540F460AEB02035878791C7E28BEB2E7
:100CC00008D07D280CD188B2AC55023705F800E079
:100CD00008E000BF88B2AC55023705F8009001E08B
:100CE0000F46A8559878791C7E28BEB208D07D287A
:100CF0000CD188B2AC55023705F800E008E000BF1F
:100D000088B2AC55023705F8009001E00F46A855AF
:100D1000D878791C7E28BBB2AED07D2806D188B2A7
:100D2000EC54BB1C05F800E0ABE700BFE8540B46F1
:100D3000A7E700BFBCF1000F5CD01AF80200591CF5
:100D40007E289FB20CD07D2814D17D20E85588B232
:100D50005D2102332954BCF1010F10D14AE000BFDC
:100D60007D20E85588B25E2102332954BCF1010F81
:100D700005D13FE00B46E855BCF1010F3AD00AEB34
:100D800002004778591C7E2F9AB20BD07D2F13D1C9
:100D90007D27AF5489B25D2202336A54BCF1020F41
:100DA0000FD127E07D27AF5489B25E2202336A5407
:100DB000BCF1020F05D11DE00B46AF54BCF1020F90
:100DC00018D08278581C7E2A99B209D07D2A0FD17A
:100DD0007D226A5480B25D21023329540AE000BFAB
:100DE0007D226A5480B25E210233295402E000BFA2
:100DF00003466A54581C99B27E226A54A8F800002F
:100E000041B0BDE8F08F0000B0B5044600F024F911
:100E1000054640F20000C2F200000078611C18BFD5
:100E2000044400BF00F018F9401BA042FAD3B0BD43
:100E30002DE9F04F82B00E68002E00F0FD8041F2E7
:100E40000042C4F20102042340F2004E904208BF67
:100E500003234FF6FF7CC4F2010E0093002401230C
:100E6000C1F2100C4FF0000A4FF000094BE000BF38
:100E700041F20002C4F20102009F904208BF022723
:100E800004F00C030F229A402BEA020207FA03F344
:100E90004FEA9A051A4346F825204E6840F20C4561
:100EA000F202DEF8082054BF22EA080242EA0802F1
:100EB000C4F20105CEF808202A68B30254BF22EA22
:100EC000080242EA08022A60B303DEF8042054BF95
:100ED00022EA080242EA0802F303CEF80420DEF810
:100EE00000204FF0010354BF22EA080242EA080240
:100EF000CEF800200E680AF1010A36FA0AF204F16F
:100F0000040400F0998003FA0AFB16EA0B08F1D0FA
:100F10004E68664512DC122E56D8DFE806F0350B17
:100F20004D49555555555555555555555555554595
:100F3000510000BFD1F80C9046E000BF4FF6FF72A1
:100F4000C1F2210296420FDC0022C1F21102964248
:100F50001AD00022C1F21202964215D00022C1F22C
:100F60002102964210D02FE00022C1F222029642C6
:100F70000AD00022C1F23102964205D00022C1F20D
:100F80003202964220D100BF8A684AB1012A14BFBA
:100F9000C0F814B0C0F810B04FF0080914E000BF5A
:100FA0004FF0040910E000BFCA6802F104090BE029
:100FB0004FF0000908E000BFCA6802F1080903E029
:100FC000CA6802F10C0900BF02462646B8F5807FC8
:100FD00024BF0432203E17680F25B54027EA0505D7
:100FE00009FA06F635431560CA79D2067FF582AF55
:100FF00041F21803C4F202031A68AEF57E7642F09D
:1010000001021A601A6802F001020192019A2AF0A4
:10101000030256F802B040F60002C4F20102904208
:1010200008D040F60042C4F2010290427FF420AFA3
:10103000012725E7002723E702B0BDE8F08F000075
:101040008068084018BF012070470000002A08BFD0
:10105000090401617047000040F28C20C2F20000D8
:1010600000687047002804BF01207047F0B581B0C8
:10107000044690F83D0028B9002084F83C00204642
:1010800000F090F9242084F83D002068016821F0E8
:1010900001010160016841F400410160016821F42F
:1010A0000041016000F036FB636848F2A16CC0F2B9
:1010B000010C40F60011C0F23D0163453CBF48F20F
:1010C0008041C0F21E01884202D2012001B0F0BD71
:1010D0004DF68361C4F21B31A0FB01122168970C0D
:1010E000D1F804E04FF496762EF03F0545EA92459C
:1010F0004D60774348F638160D6AC0F24106A7FBEB
:10110000067625F03F07634538BF960C721C3A43BC
:101110000A62CA6948F2A0664CF6FF77C0F201067F
:10112000B34222EA07020BD801385B00B0FBF3F0B0
:1011300001306FF31F30042898BF04201BE000BF6C
:10114000A768013857B119277B43B0FBF3F0013092
:101150006FF31F3070B100F5804007E003EB4303ED
:10116000B0FBF3F001306FF31F3018B100F5004011
:1011700001E000BF01201043C8610868D4E90723DB
:1011800020F0C000104318430860886848F2FF321E
:1011900004F10C0790438CCF18431043A669886074
:1011A000C86820F0FF0038433043C860086840F04A
:1011B0000100086000202021206484F83D10206395
:1011C00084F83E0001B0F0BD2DE9F04383B01E4627
:1011D000174689460446FFF73FFF94F83D10202943
:1011E00024D10546206800BF816989071AD5FFF719
:1011F00033FF411B20681A29F6D381698907F3D58B
:1012000000202021206384F83D1084F83E00216CEA
:1012100041F02001216484F83C00022003B0BDE8C5
:10122000F08300BF94F83C10012903D1022003B0E1
:10123000BDE8F083012184F83C100168C90703D19F
:10124000016841F001010160016840F2020821F4E7
:1012500000610160212184F83D10102184F83E10C6
:101260000021216467626685618DC0F201082185D5
:10127000A8F10211E162E16A0A9E11F5803F18BFF0
:1012800001291DD1016841F48071016020464FF0B1
:10129000011100223346009500F0C6FC50B12068D1
:1012A0000068C00544BF4FF400702064012003B003
:1012B000BDE8F0832069B0F5804F07D1FE2015E02E
:1012C0000829DFD0216B1229DCD0DFE7062000EAF5
:1012D000D9102168F030086108F106012046324635
:1012E0002B4600F087FD0028E0D1FF20216800EAAE
:1012F000090008612046414632462B4600F07AFD3F
:101300000028D3D1002002902068416902918069B1
:101310000290029806E000BF204631462A4600F0BF
:1013200025FC18BB208D68B3204631462A4600F0C4
:10133000CDFDD8B9606A2168024612F8013B0B6105
:101340006262628D013A6285228D531E23854F6948
:101350007F07E1D51B04DFD0437802300B61606268
:10136000608D01386085901E2085D5E7206C0428AB
:101370009CD12068016841F400710160012003B034
:10138000BDE8F0832068016841F40071016020200D
:1013900084F83D00002084F83E0084F83C0003B04F
:1013A000BDE8F08310B586B0016845F20040C4F294
:1013B000000081424FF00001CDE90411CDE9021196
:1013C00002D006B010BD00BF41F21804C4F20204FE
:1013D000216800F5384041F008012160216801F0E2
:1013E000080101910199C021029112210391032169
:1013F000059102A9FFF71CFD606840F400106060D1
:10140000606800F400100190019806B010BD000063
:1014100040F2000040F28C21C2F20000C2F2000152
:1014200000780A68104408607047000080B542F2F6
:101430000000C4F20200016841F0100101600320C5
:1014400000F07AF80F2000F005F800F027F80020EF
:1014500080BD000070B540F20006C2F2000640F206
:1014600008013278C2F200014FF47A730968B3FBC5
:10147000F2F20446B1FBF2F1084600F05FFB0F2CDC
:101480004FF0010508D838B94FF0FF30214600224F
:10149000002500F025F87460284670BD82B041F246
:1014A0001800C4F202000168022241F0010101604B
:1014B000016801F0010101910199416841F08051F9
:1014C0004160406800F08050009000980420C4F211
:1014D0000100016862F31A61016002B07047000008
:1014E00010B54EF60C5CCEF2000CDCF80030C3F305
:1014F000022E8EF00704042C28BF0424BEF103033F
:101500004FF0FF3E0EFA04F438BF0023A143994088
:101510000EFA03F39A43114300F00F0200F1604307
:101520000901043A03F564436244002848BF02F10C
:101530000C03197010BD00004EF60C51CEF20001E4
:101540000A684FF6FF031A4060F30A2242F08060F7
:1015500040F0FD7008607047002804BF012070470C
:101560002DE9F04381B042F20008C4F202080446BB
:10157000D8F800000D4600F0070081420CD9D8F8D9
:10158000000020F007002843C8F80000D8F8000049
:1015900000F00700A8426CD1206841F204098107DD
:1015A000C4F2020917D5410705D5D9F8001041F456
:1015B000E061C9F80010010705D5D9F8001041F421
:1015C0006051C9F80010D9F80010A26821F0F001AC
:1015D0001143C9F80010C00742D1D8F8000000F04C
:1015E000070085420CD2D8F8000020F007002843FD
:1015F000C8F80000D8F8000000F00700A84238D171
:101600002068410707D5D9F80010E26821F4E061AD
:101610001143C9F80010000708D5D9F80000216966
:1016200020F4605040EAC100C9F80000D9F8002059
:1016300002F00C00082841F20020C0F27A004DD1DF
:1016400045F62863C2F38341C0F60003595CD20318
:1016500038D440F60010C0F23D0048433EE000BFE1
:10166000606859F8041C022808D0012826D1890393
:1016700006D4012001B0BDE8F08300BF8901F8D590
:10168000D9F8001021F003010843C9F80000FFF762
:10169000E3FC064641F28837D9F80000616800F0A3
:1016A0000C00B0EB810F98D0FFF7D6FC801BB8423E
:1016B000F2D9032001B0BDE8F08300BF8907D8D577
:1016C000DEE700BFD9F8002045F62663C2F34042AA
:1016D000C0F600039A5C4843B0FBF2F0D9F8001062
:1016E00043F6B862C1F30311C0F60002515C40F248
:1016F000080220FA01F140F20400C2F20000006882
:10170000C2F200021160FFF7A5FE002001B0BDE8A3
:10171000F083000040F2080041F20401C2F2000030
:10172000C4F202010068096843F6C862C1F30221ED
:10173000C0F60002515CC84070470000002804BF9A
:10174000012070472DE9F04182B00446007841F253
:101750000006C007C4F202060CD0706800F00C004E
:10176000042840F081803068800303D56068002839
:1017700000F04681207880071BD5706810F00C0FB0
:1017800009D0706800F00C00082840F0878070686D
:10179000C00300F183803068800703D520690128E9
:1017A00040F02E813068616920F0F80040EAC10005
:1017B00030602078000713D4207840072CD4E569E6
:1017C000002D00F01881706800F00C00082840F02F
:1017D000A780012D40F00481012002B0BDE8F08116
:1017E000A069002800F084800020C4F2422001217A
:1017F000C0F88014FFF730FC054600BF706A800710
:1018000000F1B280FFF728FC401B0228F6D9032024
:1018100002B0BDE8F08100BFF0695FEAC00808D4FB
:10182000F06940F08050F061F06900F08050009065
:10183000009847F20007C4F200073868C00549D491
:10184000386840F480703860FFF706FC054600BF3A
:101850003868C0053ED4FFF7FFFB401B6428F7D96A
:10186000032002B0BDE8F081706800F00C00082889
:1018700003D17068C0033FF576AF61683068002916
:1018800000F00C81B1F5A02F00F00081B1F5803F90
:1018900040F01A8140F480301CE100BF206900282C
:1018A00040F20000C4F2422000F088800121016073
:1018B000FFF7D2FB054600BF306880073FF572AFE7
:1018C000FFF7CAFB401B0228F6D9032002B0BDE88F
:1018D000F08100BFE168306A002900F09D80052991
:1018E00000F09280012940F0AF8040F00100B1E0AB
:1018F0000020C4F242200021C0F88014FFF7ACFBA6
:10190000054600BF706A80077FF556AFFFF7A4FB5E
:10191000401B0228F6D9032002B0BDE8F08100BFC9
:101920000027C4F2422700203866FFF795FB022DFE
:1019300005460DD13068800140F1DE80FFF78CFB59
:10194000401B02284FF00300F4D902B0BDE8F0813B
:10195000306880014FD5FFF77FFB401B02284FF016
:101960000300F5D9F1E700BF40F20800C2F2000021
:10197000006844F6D351C1F26201A0FB0101480A9C
:10198000019000BF00BF0198411E002801913FF463
:1019900013AF00BF0198411E002801913FF40CAF26
:1019A00000BF0198411E002801913FF405AF00BF20
:1019B0000198411E00280191E4D1FDE6002101605B
:1019C000FFF74AFB054600BF306880077FF5F1AEA0
:1019D000FFF742FB401B02284FF00300F4D9B4E7A5
:1019E0007068216A00F480328A4209D1616A00F489
:1019F0007010884204D1002002B0BDE8F08100BF21
:101A0000012002B0BDE8F08140F004003062306A8D
:101A100040F001001EE000BF20F001003062306A9B
:101A200020F004003062FFF717FB054641F28837CB
:101A3000306A800720D5FFF70FFB401BB8424FF0FC
:101A40000300F5D981E700BF20F001003062306A61
:101A500020F004003062FFF7FFFA054641F28837B4
:101A6000306A800708D4FFF7F7FA401BB842F7D96D
:101A7000032002B0BDE8F081B8F1000F3FF59FAE42
:101A8000F06920F08050F06199E600BF40F48020BA
:101A90003060306840F480301CE000BF20F48030BB
:101AA0003060306820F480203060FFF7D5FA0546BA
:101AB000306880037FF55EAEFFF7CEFA401B6428E6
:101AC0004FF00300F4D940E720F4803030603068F4
:101AD00020F480203060FFF7BFFA054630688003AD
:101AE0003FF548AEFFF7B8FA401B6428F6D903204B
:101AF00002B0BDE8F08100BF206AB0F5803F05D19B
:101B00007168A26821F40031114371607168626AE2
:101B100021F4741111430843706001203866FFF707
:101B20009BFA0446306880013FF565AFFFF794FAF1
:101B3000001B02284FF00300F4D906E7411E0020E5
:101B4000B0EB116F1CBF012070474EF21002CEF2B5
:101B5000000251604EF62351CEF20001F0230B70CB
:101B60000721906011607047FEE7000070B50368C0
:101B7000044653F8140F400711D40E46481C29D0D0
:101B800086BB00BF1868400527D4FFF765FA2368B5
:101B900053F8140F400737D518684007F2D50020D6
:101BA00070BD00BF18684007F9D41868400514D408
:101BB00018684007F3D4186840050ED41868400729
:101BC000EDD41868400508D4186840074FF00000AD
:101BD00048BF70BD18684005E4D56FF48060186098
:101BE000042012E0154603E053F8140F4007D6D442
:101BF00018684005F1D4FFF72FFA401B2368B04264
:101C0000F2D958694007EFD4202000212022216317
:101C100084F83D2084F83E10226C1043206401209B
:101C200084F83C1070BD00002DE9F04105460068C5
:101C30001E46144601F47F0201338FB242D0DDF814
:101C40001880B2F5803F40F0878040693840C01B63
:101C5000B0FA80F04009844240F0C8804EB924E0D8
:101C600040693840C01BB0FA80F04009844240F01F
:101C7000BD80FFF7F1F9A0EB08012868B142EFD968
:101C800041693940C91BB1FA81F149098C42E7D158
:101C90009BE000BF40693840C01BB0FA80F04009AB
:101CA00084424FF0000040F0A280FFF7D5F9286889
:101CB00041693940C91BB1FA81F149098C42E9D126
:101CC00083E000BFB2F5803F24D100BF41693940B5
:101CD000C91BB1FA81F149098C4240F08780416902
:101CE0003940C91BB1FA81F149098C4240F07E802C
:101CF00041693940C91BB1FA81F149098C4275D15A
:101D000041693940C91BB1FA81F149098C42DDD0E2
:101D10006CE000BF81693940C91BB1FA81F1490902
:101D20008C4263D181693940C91BB1FA81F14909FB
:101D30008C425BD181693940C91BB1FA81F14909F3
:101D40008C4253D181693940C91BB1FA81F14909EB
:101D50008C42DFD04AE000BF80693840C01BB0FA37
:101D600080F04009844241D146B923E0806938407F
:101D7000C01BB0FA80F04009844237D1FFF76CF9FC
:101D8000A0EB08012868B142F0D981693940C91B2C
:101D9000B1FA81F149098C42E8D116E080693840F6
:101DA000C01BB0FA80F0400984424FF0000018BF19
:101DB000BDE8F081FFF750F9286881693940C91BF7
:101DC000B1FA81F149098C42E8D100202021286331
:101DD00085F83D1085F83E00296C41F0200129640A
:101DE00085F83C000120BDE8F08100BF0020BDE87F
:101DF000F0810000F0B581B0044600681D464369DB
:101E00008FB203EA0701B94202D1002001B0F0BD50
:101E10004169164601323CD0490512D47EB300BF59
:101E2000FFF71AF9411B2068B14203D941693940D3
:101E3000B9422BD141693940B942E6D041694905DF
:101E4000EED5016841F4007101606FF48061416179
:101E5000042000212022216384F83D2084F83E10D4
:101E6000226C1043206484F83C10012001B0F0BDC6
:101E700041693940B942C8D041694905E1D4FFF709
:101E8000EBF8206841693940B942F1D02020E0E701
:101E900041694905D5D441693940B942B5D0416954
:101EA0004905CED441693940B942AED041694905AE
:101EB000C7D441693940B942A7D041694905C0D466
:101EC00041693940B942E3D19FE7000070B503682A
:101ED000044653F8140F000611D40E46481C29D0AE
:101EE00086BB00BF1868400527D4FFF7B5F8236804
:101EF00053F8140F000637D518680006F2D50020F5
:101F000070BD00BF18680006F9D41868400514D4E5
:101F100018680006F3D4186840050ED41868000647
:101F2000EDD41868400508D4186800064FF000008A
:101F300048BF70BD18684005E4D56FF48060186034
:101F4000042012E0154603E053F8140F0006D6D41F
:101F500018684005F1D4FFF77FF8401B2368B042B2
:101F6000F2D958690006EFD42020002120222163F5
:101F700084F83D2084F83E10226C10432064012038
:101F800084F83C1070BD0000FEE70000FEE7000092
:101F900070B5ADF5826D42F2002040F23004C0F21F
:101FA0000070C2F20004CDF80C0464260DF20C425D
:101FB0002046782104230096FFF706F942F200102C
:101FC000CFF60070CDF80C040DF20C4220467821BB
:101FD00004230096FFF7F8F840200DF10B058DF86B
:101FE0000B00681C4FF48061FEF7B5F8204678219D
:101FF0002A4640F201430096FFF7E6F80DF5826DA0
:1020000070BD000070B5ADF5846D4AF60060C8F291
:10201000D500CDF8050043F6A870C0F2D300CDF886
:10202000090048F64050C2F21400CDF80D004AF203
:102030000010CDF6C820CDF8110048F21210CDF6F0
:10204000CF10CDF815004DF6F130CAF24040CDF872
:1020500019004AF6A670ADF81D0064206426FEF74C
:10206000D3FE40F23004C2F200040DF10502204616
:1020700078211A230096FFF7A7F842F20020C0F259
:102080000070CDF81F000DF11F02204678210423B7
:102090000096FFF799F842F20010CFF600700DF1AC
:1020A0001F05CDF81F00204678212A4604230096FC
:1020B000FFF78AF840208DF81F00681C4FF48061FC
:1020C000FEF749F8204678212A4640F2014300965F
:1020D000FFF77AF80DF5846D70BD00002DE9F04F23
:1020E0008DB00D460646032AA3F1200000F0CC84F3
:1020F000022A00F03581012A40F0AE85C0B243F6D5
:10210000D06100EB4000C0F6000140F2300A01EB64
:10211000400B11F810404FF40850C2F2000A0DF1C4
:102120003008ADF830006427504678214246042339
:102130008DF832608DF833600097FFF745F84FF463
:1021400004500DF13009ADF83000504678214A4670
:1021500004238DF832508DF833500097FFF734F890
:1021600040208DF830000CAA5046782102238DF8CB
:1021700031400097FFF728F84FF40850ADF83000D1
:1021800050467821424604236C1C8DF832608DF84D
:1021900033600097FFF718F84FF40450ADF83000A3
:1021A000504678214A4604238DF832408DF833405A
:1021B0000097FFF709F89BF8031040208DF83000D6
:1021C0009BF8010008919BF80410CDF828B09BF80B
:1021D00002400DF1300B09918DF831005046782105
:1021E0005A4602230097FEF7EFFF4FF40850ADF870
:1021F0003000504678210CAA0423A84602358DF8F9
:1022000032608DF833600097FEF7DEFF4FF4045024
:10221000ADF83000504678214A4604238DF83250FC
:102220008DF833500097FEF7CFFF40208DF8300037
:10223000504678215A4602238DF831405D4600977A
:10224000FEF7C2FF4FF408500DF1300BADF830002F
:10225000504678215A46042308F103048DF8326071
:102260008DF833600097FEF7AFFF4FF40450ADF8E0
:102270003000504678214A4604238DF832408DF8CC
:1022800033400097FEF7A0FF40208DF830000898FB
:1022900078218DF8310050462A4602230097FEF738
:1022A00093FF4FF40850ADF83000504678215A465D
:1022B000042308F104048DF832608DF83360009730
:1022C000FEF782FF4FF40450ADF8300050467821FD
:1022D0004A4604238DF832408DF833400097FEF7CC
:1022E00073FF40208DF83000099878218DF8310077
:1022F00050462A4602230097FEF766FF0A98782187
:1023000045794FF40850ADF8300050465A46042342
:1023100008F105048DF832608DF833600097FEF700
:1023200053FF4FF40450ADF83000504678214A4630
:1023300004238DF832408DF833400097FEF744FFB8
:1023400040208DF83000504678210CAA02238DF8E9
:1023500031500097FEF738FF0DB0BDE8F08F00BF99
:10236000C0B244F2F80100EBC000C0F6000140F238
:10237000300A01EB400B11F810404FF40850C2F244
:10238000000A0DF13008ADF830004FF064095046F6
:102390007821424604238DF832608DF83360CDF801
:1023A0000090FEF711FF4FF404500CAFADF8300071
:1023B000504678213A4604238DF832508DF8335038
:1023C000CDF80090FEF700FF40208DF830000CAAF9
:1023D0005046782102238DF83140CDF80090FEF769
:1023E000F3FE4FF40850ADF83000504678214246D5
:1023F00004236C1C8DF832608DF83360CDF80090AA
:10240000FEF7E2FE4FF40450ADF83000504678215C
:102410003A4604230A948DF832408DF83340CDF8C3
:102420000090FEF7D1FE9BF8031040208DF830009D
:102430009BF8010007919BF80410CDF808B02C46DA
:102440009BF802500DF1300B06918DF8310050468B
:1024500078215A460223CDF80090FEF7B5FE4FF4DE
:102460000850ADF83000504678210CAA042304F13E
:1024700002088DF832608DF83360CDF80090FEF7D9
:10248000A3FE4FF40450ADF83000504678213A4690
:102490000423CDF824808DF832808DF83380CDF878
:1024A0000090FEF791FE40208DF8300050467821D4
:1024B0005A4602238DF83150CDF80090FEF784FE85
:1024C0004FF408500DF13008ADF830005046782137
:1024D00042460423E51C27468DF832608DF83360B0
:1024E000CDF80090FEF770FE4FF4045008958DF87B
:1024F00032508DF833500CADADF830005046782195
:102500002A460423CDF80090FEF75EFE40208DF8A9
:102510003000079878218DF8310050465A46022342
:10252000CDF80090FEF750FE4FF40850ADF83000A3
:10253000504678214246042304348DF832608DF8E9
:102540003360C346CDF80090FEF73EFE4FF40450D2
:10255000ADF83000504678212A46042307948DF8C0
:1025600032408DF83340CDF80090FEF72DFE40202C
:102570008DF83000069878218DF8310050460CAA6D
:102580000223CDF80090FEF71FFEDDF808804FF41F
:10259000085098F80540ADF83000504678215A466A
:1025A00004237D1D8DF832608DF83360CDF80090E6
:1025B000FEF70AFE4FF404500DF1300BADF8300079
:1025C000504678215A46042306958DF832508DF8EE
:1025D0003350CDF80090FEF7F7FD40208DF8300025
:1025E000504678210CAA02238DF83140CDF8009096
:1025F000FEF7EAFD4FF4085098F80640ADF83000B9
:10260000504678210CAA0423BD1D8DF832608DF848
:102610003360CDF80090FEF7D7FD4FF40450ADF8CD
:102620003000504678215A46042305958DF83250E3
:102630008DF83350CDF80090FEF7C6FD40208DF8A0
:102640003000504678210CAA02238DF83140CDF895
:102650000090FEF7B9FD4FF4085098F80740ADF828
:102660003000504678210CAA0423FD1D8DF83260FD
:102670008DF83360CDF80090FEF7A6FD4FF40450BE
:10268000ADF83000504678215A46042304958DF861
:1026900032508DF83350CDF80090FEF795FD402074
:1026A0008DF83000504678210CAA02238DF8314075
:1026B000CDF80090FEF788FD4FF4085098F80840D8
:1026C000ADF83000504678210CAA042307F1080524
:1026D0008DF832608DF83360CDF80090FEF774FD10
:1026E0004FF40450ADF83000504678210CAA042372
:1026F00003958DF832508DF83350CDF80090FEF7E9
:1027000063FD40208DF83000504678210CAA02234A
:102710008DF83140CDF80090FEF756FD751C98F805
:1027200009404FF408560CAA504678210423C346AA
:10273000ADF830608DF832508DF83350CDF8009000
:10274000FEF742FD4FF404508DF832708DF833706F
:102750000CAFADF83000504678213A460423CDF84E
:102760000090FEF731FD40200DF130088DF830006B
:1027700050467821424602238DF83140CDF8009032
:10278000FEF722FDADF830600CAE9BF80A405046D3
:102790007821324604238DF832508DF83350CDF82D
:1027A0000090FEF711FD4FF40450ADF830000A9888
:1027B00078218DF832008DF8330050463A460423D4
:1027C000CDF80090FEF700FD40208DF83000504617
:1027D0007821424602238DF83140CDF80090FEF773
:1027E000F3FC4FF408509BF80B40ADF83000504616
:1027F0007821324604238DF832508DF83350CDF8CD
:102800000090FEF7E1FC4FF40450ADF83000099859
:1028100078218DF832008DF8330050463A46042373
:10282000CDF80090FEF7D0FC40208DF830005046E7
:102830007821424602238DF83140CDF80090FEF712
:10284000C3FC4FF408509BF80C40ADF830005046E4
:102850007821324604238DF832508DF83350CDF86C
:102860000090FEF7B1FC4FF40450ADF8300008982A
:1028700078218DF832008DF8330050463A46042313
:10288000CDF80090FEF7A0FC40208DF830005046B7
:102890007821424602238DF83140CDF80090FEF7B2
:1028A00093FC4FF408509BF80D40ADF830005046B3
:1028B0007821324604238DF832508DF83350CDF80C
:1028C0000090FEF781FC4FF40450ADF830000798FB
:1028D00078218DF832008DF8330050463A460423B3
:1028E000CDF80090FEF770FC40208DF83000504687
:1028F0007821424602238DF83140CDF80090FEF752
:1029000063FC4FF408509BF80E40ADF83000504681
:102910007821324604238DF832508DF83350CDF8AB
:102920000090FEF751FC4FF40450ADF830000698CB
:1029300078218DF832008DF8330050463A46042352
:10294000CDF80090FEF740FC40208DF83000504656
:102950007821424602238DF83140CDF80090FEF7F1
:1029600033FC4FF408509BF80F40ADF83000504650
:102970007821324604238DF832508DF83350CDF84B
:102980000090FEF721FC4FF40450ADF8300005989C
:1029900078218DF832008DF8330050463A460423F2
:1029A000CDF80090FEF710FC40208DF83000504626
:1029B0007821424602238DF83140CDF80090FEF791
:1029C00003FC4FF408509BF81040ADF8300050461F
:1029D0007821324604238DF832508DF83350CDF8EB
:1029E0000090FEF7F1FB4FF40450ADF8300004986E
:1029F00078218DF832008DF8330050463A46042392
:102A0000CDF80090FEF7E0FB40208DF830005046F6
:102A10007821424602238DF83140CDF80090FEF730
:102A2000D3FB4FF408509BF81140ADF830005046EE
:102A30007821324604238DF832508DF83350CDF88A
:102A40000090FEF7C1FB4FF40450ADF8300003983E
:102A500078218DF832008DF8330050463A46042331
:102A6000CDF80090FEF7B0FB40208DF830008DF8D7
:102A700031405046782142460223CDF80090FEF7BF
:102A8000A3FB0DB0BDE8F08FC0B2C0EB001080001A
:102A9000411C089144F2A67140F2300A2A460024F3
:102AA000C0F60001C2F2000A09900B961FFA80F8E6
:102AB0004FF408500CAD02EB040911F808B0ADF862
:102AC00030008DF832608DF833605046782117461B
:102AD0002A46042364260096FEF776FB4FF4045042
:102AE000ADF83000504678212A4604238DF8329004
:102AF0008DF833900096FEF767FB40208DF830008C
:102B0000504678212A4602238DF831B00096FEF710
:102B10005BFB44F2A6710B9E01343A46C0F60001FD
:102B2000142C08F10300C1D1701C0A90089840F2DF
:102B300030084FF00009C2F200084FF0640B00BFEC
:102B400085B24FF40850ADF830000A980CAC02EB97
:102B5000090611F805A08DF832008DF833004046C3
:102B6000782122460423CDF800B0FEF72DFB4FF468
:102B70000450ADF8300040467821224604238DF8F9
:102B800032608DF83360CDF800B0FEF71DFB4020B9
:102B90008DF8300040467821224602238DF831A07E
:102BA000CDF800B0FEF710FB44F2A67109F101095F
:102BB0003A46C0F60001B9F1140F05F10300BFD188
:102BC00009980B9B40F2300640F0020002330027C8
:102BD0009046C2F200064FF0640B0B931FFA80FA86
:102BE0004FF40850ADF830000B980CAC11F80A9077
:102BF0008DF832008DF833003046782122460423C8
:102C000008EB0705CDF800B0FEF7DEFA4FF40450EC
:102C1000ADF8300030467821224604238DF832503A
:102C20008DF83350CDF800B0FEF7CEFA40208DF885
:102C3000300030467821224602238DF83190CDF8BD
:102C400000B0FEF7C1FA44F2A6710137C0F60001E8
:102C5000142F0AF10300C1D10DB0BDE8F08F0000C0
:102C600070B50C46012A054626D0022A12D0032A46
:102C700034D1187890B35E1EE1B2C3B22846032265
:102C8000FFF72CFAB0781434002806F10106F3D1CE
:102C900024E000BF187808B35E1E00BFE1B2C3B2E3
:102CA00028460222FFF71AFAB0780934002806F104
:102CB0000106F3D112E000BF1878002808BF70BDEC
:102CC0005E1E00BFE1B2C3B228460122FFF706FA3A
:102CD000B0780634002806F10106F3D170BD00007B
:102CE000704700002DE9F04792B040F28528C2F20B
:102CF000000898F80030013B032B00F27F80DFE8EA
:102D000003F00383274D00BF45F67C70C0F600003A
:102D100090E84E00D0E904540DF1040ED0E906C746
:102D20008EE84E00CDE9055400F12006D0E90C50A4
:102D30004ECE01AC0DF1240ECDE90D5020468EE8AB
:102D40004E00CDE907C7FDF711FA81B220468EE0AB
:102D500045F6B472C0F6000201AD044628460E46A0
:102D600011464422FDF7DEF92846FDF7FFF981B24E
:102D7000284600F0FBF97108204600F0F7F94BF601
:102D8000AA30C0F2CC0000906846032100F0EEF9B2
:102D9000A6EB560104EB560089B268E072B3384ADC
:102DA000019237A2D2E9013702F1140ED2E903658C
:102DB0009EE81050CDE9023702F12407D2F82090A6
:102DC000CDE904650694F8CF926BCDE909930BAB7E
:102DD000F0C301AC05462046CDE907CE0F920E4662
:102DE000FDF7C4F981B2204600F0C0F94FF47A60D3
:102DF000FEF70AF82846314639E000BF12B0BDE8B8
:102E0000F04700F0B3B900BF2C4A01922BA202F1A7
:102E1000140ED2E90137D2E903659EE8105002F1A1
:102E2000240AD2F82090CDE90237CDE90465069452
:102E30009AE8F804D26BCDE909930BAB83E8F00470
:102E400001AC05462046CDE907CE10920E46FDF7AF
:102E50008DF981B2204600F089F928463146022ECC
:102E600005D3421812F8023CDB4302F8023C00F0A2
:102E70007DF9002088F8000012B0BDE8F08700BF9F
:102E80000D0A5B535633202D204D4F44554C4520A1
:102E90004C4F495D204461206769752041434B20B8
:102EA0006C616920342067696179202844656C6110
:102EB000792041434B29210D0A0000000D0A5B5384
:102EC0005633202D204D4F44554C45204C4F495DE5
:102ED0002044612064616F206269742043686563E7
:102EE0006B73756D2028436F72727570742050611A
:102EF000636B657429210D0A000000003038042836
:102F000088BF704770B58EB0DFE800F004A24A7643
:102F1000220000BF78480DF1040C009076A0041D3B
:102F20001ECC40698CE81E006C4605902046FDF7DB
:102F30001DF981B2204600F019F940F28520C2F255
:102F40000000002101700EB0BDE87040704700BF66
:102F50005148009050A0061D4ECE00F1140E046A98
:102F60000191816A406A9EE82050CDE9084005A899
:102F70006C4680E8205020460292039304960A9102
:102F8000FDF7F4F881B2204600F0F0F840F2852019
:102F9000C2F20000042101700EB0BDE8704070471D
:102FA00043F64860C0F60000D0E9045490E84E00B3
:102FB000D0E906CECDE9045400F120058DE84E009D
:102FC0003ECD406BCDE906CE0DF1200C8CE83E00E5
:102FD0006C460D902046FDF7C9F881B2204600F0FE
:102FE000C5F840F28520C2F20000022101700EB047
:102FF000BDE87040704700BF3248009031A0061D08
:103000004ECE039300F12403046A019102920ECB89
:1030100000F1140E006B9EE82050CDE908416C468B
:103020000C90204604960595CDE90A23CDE906CEFD
:10303000FDF79CF881B2204600F098F840F2852018
:10304000C2F20000032101700EB0BDE8704070476D
:1030500043F61C60C0F6000090E81E50D0E906560A
:103060008DE81E50826AD0E908106C46CDE9081040
:1030700020460A92CDE90656FDF778F881B220463F
:1030800000F074F840F28520C2F2000001210170C6
:103090000EB0BDE8704070470D0A5B5356335D209B
:1030A0004D4F4445204C4F493A205345204C414D0B
:1030B000205452452041434B203420474941592E4A
:1030C0000D0A00000D0A5B5356335D204D4F4445F9
:1030D000204C4F493A205345204348454E20524109
:1030E000432056414F20474F4920544945502054D2
:1030F00048454F2E0D0A00000D0A5B5356335D20E4
:10310000544154204348454E204C4F492E0D0A004F
:103110007047000040F28820C2F2000001680131CF
:103120000160FEF775B900007047000040F208002A
:10313000C2F20000006844F6D351C1F26201A0FB64
:1031400001014FF0FF3000EB91104EF21001CEF272
:103150000001486000208860072008607047000078
:1031600040F28820C2F20000006870470246002842
:1031700018BF01200B46002918BF01231840012861
:1031800018BF7047B0B543F60003C4F20103042929
:1031900001F0030C48D20021BCF1000F34D01D68AF
:1031A0002D0609D41D682D065CBF1D685FEA056504
:1031B00002D41D682D06F2D5555CBCF1010F5D608F
:1031C00022D01D682D0609D41D682D065CBF1D6820
:1031D0005FEA056502D41D682D06F2D511444A78D0
:1031E000BCF1020F5A600FD01A68120609D41A688F
:1031F00012065CBF1A685FEA026202D41A681206FD
:10320000F2D58978596000BF1968490609D4196850
:1032100049065CBF19685FEA416102D41968490632
:10322000F2D5BDE8B040704721F0030E002104E064
:10323000145D043171455C60AED01C68240606D470
:103240001C6824065CBF1C685FEA046434D5545CC7
:103250005C6041F001041D682D0609D41D682D062F
:103260005CBF1D685FEA056502D41D682D06F2D5B6
:10327000145D5C6041F002041D682D060AD41D68CF
:103280002D065CBF1D685FEA056503D41D682D0629
:10329000F2D500BF145D5C6041F003041D682D068B
:1032A000C6D41D682D065CBF1D685FEA0565BFD4E6
:1032B0001D682D06F2D5BBE71C682406BDD5C6E700
:1032C00070B5F2B040F28814C2F200042146FDF756
:1032D00087FA012822D1207802285FD001283BD02C
:1032E000D0B940F21405C2F200056378EA7893423F
:1032F00070D10DF5997460A120461A4600F04EFC7D
:103300002046FCF733FF81B22046FFF72FFFE87815
:103310000130E870010670D172B070BD0228FBD197
:1033200020780028F8D1627845F6F6610DF5997598
:10333000C0F60001284600F031FC2846FCF716FFD5
:1033400081B22846FFF712FF617802208DF8350020
:103350008DF8361057E000BF40F21406C2F20006A6
:10336000647830788442D7D370788442D4D20DF117
:10337000350532A12846224600F010FC2846FCF70D
:10338000F5FE81B22846FFF7F1FE7078611C81429C
:1033900031704DD10020B07072B070BD627845F6CA
:1033A00038610DF13504C0F60001204600F0F6FB4F
:1033B0002046FCF7DBFE81B22046FFF7D7FE40F245
:1033C0001400C2F20000017841700021817072B0D7
:1033D00070BD00BF45F67B610DF59974C0F6000124
:1033E000204600F0DBFB2046FCF7C0FE81B2204601
:1033F000FFF7BCFEE87801068ED0012101388DF878
:1034000035108DF8360000200DF103048DF83700DB
:10341000ADF800000DF135006A462146FDF74CFB82
:10342000BDF8001020460122FFF75CFC72B070BDB1
:10343000FFF796FEB06072B070BD00BF0D0A5B4D25
:1034400041434820415D204E68616E2064756F6382
:103450002041434B20474F5020285365712025645D
:10346000292E205452554F542043554120534F206C
:103470004C454E210D0A00000D0A5B4D414348208A
:10348000425D204E68616E2044554E472054485599
:103490002054552028536571202564292E204C6125
:1034A0007920726120786169210D0A0041F21800CB
:1034B000C4F20200016844F204021143016040F6C4
:1034C0000400C4F20100016842F22C0221F47F6181
:1034D0000160016841F49661016043F60C00C4F29A
:1034E000010040F2712140F8041C016811430160A1
:1034F0004EF20410CEF2000020210160704700005F
:1035000043F60000C4F201000168890658BF704705
:103510004068C0B2FFF7D4BEFEE70000ADF5367DCF
:10352000FDF784FF00240120CDE93044CDE92E448D
:103530002B902F904FF4E0104FF4803102253490FF
:103540002BA8CDE92C14CDE93251FEF7F7F828B1BC
:10355000EFF3108072B600BFFEE700BF0F20CDE989
:1035600084054FF48060CDE9870484A80221869405
:10357000FDF7F2FF20B1EFF3108072B6FEE700BF57
:1035800041F21800C4F20200016840F6084B41F015
:10359000200101600168C4F2010B01F020012B91B0
:1035A0002B99016840F2140A41F00401016001689E
:1035B000C2F2000A01F004012B912B99016800234B
:1035C00041F00801016001684FF4804201F00801F8
:1035D0002B912B99016841F0080101605BF8040C04
:1035E00045F2004180B24BF8040C5BF8040CC4F2C5
:1035F000000140F0084040F408004BF8040CDBF8F0
:10360000040040F47040CBF80400504640F81C1F02
:1036100048F2A061C0F20101C0E90113C0E9033220
:10362000C0E90533C0E90733FDF71CFD20B1EFF316
:10363000108072B6FEE700BFFFF738FFFFF776FD98
:10364000FEF7E0FCFEF7A4FC0FF2DC4300200021B3
:103650000122FFF705FB0FF2E443022000210122C3
:10366000FFF7FEFA0FF2E443042000210122FFF7E6
:10367000F7FA0FF2E843062000210122FFF7F0FAE3
:10368000FDF78AF845F6F87184ACC0F600012046D3
:10369000C822FCF747FD2046FCF768FD81B22046B2
:1036A000FFF764FD43F68060C0F6000001682BACB4
:1036B00019914168189181681791C1681691016943
:1036C00015914169149181691391C1691291016A3F
:1036D0001191416A1091816A0F91C16A0E91016B3B
:1036E000406B0D910C900FF2884041680B918168FE
:1036F0000A91C1680991016908914169079181693D
:103700000691C1690591016A0491816A406ACDE917
:1037100002104CE019982B9018982C9017982D9027
:1037200016982E9015982F90149830900E983690E9
:103730000F983590109834901198339012983290D9
:10374000139831900D9837900C9838902046FCF7DC
:103750000DFD81B22046FFF709FD42F21070FDF722
:1037600053FBDFF80C04AAF800506B900B988AF812
:1037700003506C900A986D9009986E9008986F901D
:1037800007987090069871900598729004987390BD
:1037900003987490029875903046FCF7E7FC81B26C
:1037A0003046FFF7E3FC4FF4FA60FDF72DFBDBF842
:1037B0000050DBF800001D90DBF80060DBF80070C3
:1037C0000220FDF721FBDBF80000012100F480500E
:1037D00081EA1038E804DBF800001C90DBF80000F8
:1037E00058BF08F1010800F4804081EA9039700464
:1037F000DBF8000058BF09F1010980B281EAD03638
:1038000038044FF0020058BF0136FDF7FDFADBF82F
:103810000000C004DBF800001B90DBF8000058BF7C
:1038200008F101084004DBF8000058BF09F1010964
:1038300000044FF0020058BF0136FDF7E5FADBF84F
:103840000000C004DBF800001A90DBF8000058BF4D
:1038500008F101084004DBF8000058BF09F1010934
:1038600000044FF0020058BF0136FDF7CDFADBF837
:103870000000C00458BF08F10108DBF80070DBF855
:1038800000005FFA88F54004DBF8000058BF09F13A
:10389000010900044FF0020058BF0136FDF7B4FAE9
:1038A000032D05D9312000254FF0010823E000BF8A
:1038B0001C98012100F4005081EA50301D994FF00E
:1038C0000108890458BF01301B99890458BF013091
:1038D0001A99890458BF0130B90458BF0130C0B2E9
:1038E000032801D9322005E05FFA89F0032840F26D
:1038F0000F81332000254FF002096BAEFFF7FEFA6F
:103900004FF4FA70FDF780FAFFF72AFCDAF814108A
:10391000401AB0F5FA6F3BD3FFF722FCCAF8140047
:103920003046FCF795FC98B39DF8AC0145F67477EA
:103930009DF8AD21C0F600078AF8050020463946FB
:103940008AF8042000F02AF945F6707302203C2121
:103950000122C0F60003FFF783F902203C21012277
:103960002346FFF77DF99AF805202046394600F0F6
:1039700015F945F6707304203C210122C0F60003BE
:10398000FFF76EF904203C2101222346FFF768F976
:10399000FFF7E6FBDAF81810401AB0F5FA7F2ED3DD
:1039A000FFF7DEFB45F67777DAF80C20C0F6000764
:1039B000CAF818002046394600F0F0F80620182111
:1039C000012269A3FFF74CF90620182101222346A2
:1039D000FFF746F9DAF810202046394600F0DEF805
:1039E00045F6707306204E210122C0F60003FFF752
:1039F00037F906204E2101222346FFF731F99AF8C4
:103A0000000007283FF686AE9AF80120072A53D80F
:103A10000430904250D99AF804309AF8057045F66F
:103A2000C2613046C0F60001009700F0B7F830469A
:103A3000FCF79CFB81B23046FFF798FB9AF8010037
:103A40000DF17A078DF8AD00BAF804003946ADF8EB
:103A5000AF0020461EAA8DF8AC508DF8AE90ADF8A0
:103A60007850FDF729F8BDF8781038460022FFF7A6
:103A700039F9DAF80C109AF800209AF801000131AF
:103A80008242CAF80C1007D1FFF76AFBCAF8080097
:103A90009AF801008AF8028001308AF801004FF498
:103AA0009670FDF7B1F99AF80120072A04D89AF820
:103AB000000004309042AED89AF8020001287FF44A
:103AC00076AEFFF74DFBDAF80810401A41F2883164
:103AD0008842FFF46CAE9AF8002045F63771204614
:103AE000C0F6000100F05AF82046FCF73FFB81B217
:103AF0002046FFF73BFB9AF800008AF802508AF84C
:103B00000100DAF810000130CAF810004BE600BFDF
:103B1000F0B204284FF000054FF002096BAEFFF43D
:103B2000F3AE3420EAE600BF4E484F4D203130203E
:103B30002D20424F41524420410000004E686965EB
:103B40007420646F3A20202020204300446F2061BD
:103B50006D20203A20202020202500004775693A5A
:103B600020202020544F3A00202020200000000078
:103B70000D0A5B52455345545D20426174206461D7
:103B80007520706869656E20476F2D4261636B2DEB
:103B90004E206D6F692E2E2E0D0A00000FB4084BBB
:103BA00010B504A902AA039800F01CF8044602A963
:103BB000002000F02DF9204610BC5DF814FB000039
:103BC000113E000802E008C8121F08C1002AFAD1FD
:103BD00070477047002001E001C1121F002AFBD18D
:103BE000704700002DE9FF4F8BB09A460F46044600
:103BF000002606E025280BD052460D999047641CFC
:103C0000761C20780028F5D10FB03046BDE8F08F43
:103C10000025A94601227D4900E0054314F8013F33
:103C2000203B02FA03F00842F7D120782E2817D162
:103C300014F8010F45F004052A280ED06FF02F026A
:103C40002078A0F1300109290AD809EB890102EB9B
:103C5000410100EB0109641CF2E757F8049B641C66
:103C600020786C280DD004DC4C2812D06A2811D1A1
:103C700004E074280DD07A280CD10AE045F4001530
:103C800007E0617845F48015814202D1641C05F596
:103C90008015641C207869283ED006DC0028B3D04B
:103CA00063280BD0642804D136E0732810D075281F
:103CB0005CD052460D999047761CA5E017F8040B8E
:103CC0008DF8000000208DF80100E846012003E097
:103CD00057F8048B4FF0FF3069074FF0000501D40F
:103CE0000AE06D1C4D450DDA8542FADB18F8051027
:103CF0000029F6D106E06D1C8542FCDB18F80510A2
:103D00000029F8D12E4404E018F8010B52460D9911
:103D100090476D1EF8D277E000200A90C5F302505C
:103D20004FF00A0B02280CD001CFC117021E71F10F
:103D300000020CDA0023D0EB030063EB01012D221B
:103D400008E0FF1D27F00707F7E80201EEE72A0564
:103D500004D52B228DF82420012203E0EA070FD09E
:103D60002022F7E70DF12008089218E000200A90C1
:103D7000C5F302504FF00A0B022803D001CF0021F7
:103D80000022EFE7FF1D27F00707F7E80201F7E73A
:103D90005A460A9BFCF7F1F9303208F8012D50EA37
:103DA0000102F5D1ADEB080000F1200B680701D44A
:103DB0004FF00109D94502DDA9EB0B0000E000201E
:103DC0008146002506E009A85246405D0D999047BE
:103DD0006D1C761C08988542F5DB04E030205246C5
:103DE0000D999047761CB9F10001A9F10109F5DCA4
:103DF00005E018F8010B52460D999047761CBBF16F
:103E00000001ABF1010BF4DC641CFAE609280100A7
:103E10000A68531C0B601070704700000D0A5B535A
:103E200056335D204D4F4445204C4F493A20534571
:103E300020424F20474F492054494550205448457F
:103E40004F2E0D0A000000000D0A5B5356335D2013
:103E50004D4F4445204C4F493A2053452044414F53
:103E60002042495420434845434B53554D20474F2A
:103E7000492054494550205448454F2E0D0A000012
:103E80000D0A5B484F414E205448414E485D204446
:103E9000612067756920786F6E6720746F616E208E
:103EA000626F203820676F6920476F2D4261636B16
:103EB0002D4E210D0A00000000000000000000004F
:103EC00001020304060708090000000001020304C0
:103ED0000000000000000000002F000000000700AC
:103EE000070000147F147F1400242A7F2A12006226
:103EF00064081323003649552250000005030000D2
:103F000000001C224100000041221C000014083E59
:103F100008140008083E0808000000A0600000081F
:103F20000808080800006060000000201008040273
:103F3000003E5149453E0000427F40000042615131
:103F40004946002141454B31001814127F100027CB
:103F500045454539003C4A4949300001710905038E
:103F600000364949493600064949291E00003636BF
:103F70000000000056360000000814224100001422
:103F800014141414000041221408000201510906FF
:103F900000324959513E007C1211127C007F494980
:103FA0004936003E41414122007F4141221C007FB1
:103FB00049494941007F09090901003E4149497ABF
:103FC000007F0808087F0000417F41000020404139
:103FD0003F01007F08142241007F40404040007FA5
:103FE000020C027F007F0408107F003E4141413EE9
:103FF000007F09090906003E4151215E007F091931
:1040000029460046494949310001017F0101003F2D
:104010004040403F001F2040201F003F4038403FAD
:104020000063140814630007087008070061514911
:10403000454300007F4141000002040810200000B9
:1040400041417F0000040201020400404040404022
:10405000000001020400002054545478007F4844BA
:10406000443800384444442000384444487F0038F1
:104070005454541800087E0901020018A4A4A47C1A
:10408000007F080404780000447D400000408084E4
:104090007D00007F102844000000417F4000007C2C
:1040A00004180478007C0804047800384444443838
:1040B00000FC242424180018242418FC007C080484
:1040C000040800485454542000043F444020003C5D
:1040D0004040207C001C2040201C003C4030403CE4
:1040E000004428102844001CA0A0A07C0044645474
:1040F0004C441414141414140000000000000000B8
:104100000000000000000000000000003EFFFF3E35
:10411000000000000000333300000000000707002B
:10412000000707000000000000000000000020FE63
:10413000FE2020FEFE2000011F1F01011F1F0100A5
:10414000383C64FFFF841C1800060E083F3F090F2F
:1041500007001E331EC0701C070100301C07010041
:104160001E331E001EB3E1E1B31E0080001F31208C
:1041700020311F1B31000000000B07000000000071
:1041800000000000000000000000F0FE0F01000031
:10419000000000073F78400000000000010FFEF023
:1041A000000000000040783F0700000080A0E0C051
:1041B000C0E0A08000000203010103020000808033
:1041C00080E0E08080800000000003030000000029
:1041D000000000000000000000000000B0700000BF
:1041E00000008080808080808080000000000000CF
:1041F00000000000000000000000000000000000BF
:10420000303000000000000000C0F03C0F03003020
:104210003C0F030000000000FCFE0381611BFEFC5C
:10422000000F1F362120301F0F00040406FFFF007F
:104230000000002020203F3F202020000C0E030122
:1042400081C37E3C00383C262321202020000C0E18
:1042500043414143FEBC000C1C302020301F0F00A6
:1042600000E0FC1F83800000000F0F08083F3F089C
:1042700008003F3F21212161C181000C1C3020201A
:10428000301F0F00E0F85C4643C18101000F1F3072
:104290002020301F0F000101010181F17F0F00007C
:1042A00000003C3F030000001CBEE34141E3BE1C94
:1042B000000F1F302020301F0F003C7EC381818300
:1042C000FEFC0020202030180E07010000000060D6
:1042D000600000000000000030300000000000001E
:1042E00000606000000000000000B07000000000EE
:1042F00080C06030180C040000000103060C181088
:1043000000002020202020202020000101010101A8
:1043100001010100040C183060C080000010180C6E
:1043200006030100000006070301C1F33F1E000061
:104330000000333300000000FCFE03E1F11113FE26
:10434000FC0F1F30212322213313FCFE0301010344
:10435000FEFC003F3F010101013F3F00FFFF4141E3
:1043600041E3BE1C003F3F202020301F0F00FCFE19
:10437000030101030E0C000F1F302020301C0C0025
:10438000FFFF01010107FEF8003F3F202020381FFA
:104390000700FFFF414141414101003F3F202020F4
:1043A00020202000FFFF818181818101003F3F00AB
:1043B000000000000000FCFE030181838E8C000FD2
:1043C0001F302020301F0F00FFFF40404040FFFF04
:1043D000003F3F000000003F3F00010101FFFF01DF
:1043E0000101002020203F3F20202000000000008D
:1043F0000000FFFF000C1C302020301F0F00FFFFCB
:10440000C0E0381C0F03003F3F0001070E3C3000A6
:10441000FFFF000000000000003F3F202020202080
:104420002000FFFF78C0C078FFFF003F3F0003037C
:10443000003F3F00FFFF1C70C000FFFF003F3F0038
:104440000001073F3F00FCFE03010103FEFC000FDB
:104450001F302020301F0F00FFFF818181C37E3C71
:10446000003F3F00000000000000FCFE03010103CC
:10447000FEFC000F1F302060F09F0F00FFFF8181C6
:1044800081C37E3C003F3F0000011F3E20003C7E78
:1044900063E1C1838E0C000C1C302021311F0F0002
:1044A000010101FFFF010101000000003F3F00008A
:1044B0000000FFFF00000000FFFF000F1F30202062
:1044C000301F0F003FFFC00000C0FF3F0000010F82
:1044D0003C3C0F010000FFFF00C0C000FFFF0001D7
:1044E0003F3E01013E3F01000F3FF0C0C0F03F0FD3
:1044F000003C3F030000033F3C003FFFC08080C002
:10450000FF3F000000013F3F01000000010181C1A9
:1045100061391F0700383E2721202020200000009D
:10452000FFFF010100000000003F3F2020000000CD
:10453000030F3CF0C00000000000000000030F3C2F
:10454000300000000101FFFF000000000020203FBC
:104550003F000000040406030306060400000000F8
:1045600000000000000000000000000000000080CB
:104570008080808080808080000000070B00000029
:10458000000000000000000000000040202020206B
:10459000E0C0001E3F212121113F3F00FFFF4020CE
:1045A0002060C080003F3F102020301F0F0080C0DF
:1045B000602020206040000F1F302020203010009D
:1045C00080C060202040FFFF000F1F302020103FE0
:1045D0003F0080C060202060C080000F1F32222278
:1045E000223313002020FEFF212123020000003F80
:1045F0003F000000000080C060202040E0E0004755
:104600004FD89090C87F3F00FFFF40202060C080BF
:10461000003F3F000000003F3F00002020E3E30098
:104620000000000020203F3F20200000000020204C
:10463000E3E30000000040C080FF7F000000FFFFB8
:10464000000080C06020003F3F06070D18302000AA
:10465000000101FFFF000000000020203F3F20205C
:104660000000E0E060C0C060E0C0003F3F001F1FEE
:10467000003F3F00E0E040202060C080003F3F005E
:104680000000003F3F0080C060202060C080000F1D
:104690001F302020301F0F00E0E040202060C0804D
:1046A00000FFFF102020301F0F0080C0202020407E
:1046B000E0E0000F1F20202010FFFF00E0E0C040DE
:1046C00060606040003F3F00000000000000C0E06C
:1046D000202020206040001031212326243C180097
:1046E000002020FEFE202000000000001F3F2020B0
:1046F0000000E0E000000000E0E0001F3F2020207C
:10470000103F3F00E0E000000000E0E00003071C75
:1047100030301C070300E0E000C0C000E0E000070C
:104720003F380707383F070060E080000080E06006
:1047300000303D0D07070D3D3000E0E000000000B7
:10474000E0E000838FDC70301C0F0300202020206D
:1047500020A0E0600030382C26232120200000001B
:1047600080FE7F010100000000003F7F404000000C
:10477000000000FFFF000000000000007F7F00003D
:1047800000000001017FFE800000000040407F3FEC
:10479000000000000202010102020101000000000D
:1047A0000000000000000000000000000000000009
:1047B00000000000000000000000000000000000F9
:1047C00000000000000000000000000000000000E9
:1047D00000000000000000000000000000000000D9
:1047E0000000000000000000FE1FF0FEFFF7FEFFCB
:1047F000F7FE1FF0000000000000000000000000B5
:1048000000000000000000000000000000000000A8
:104810000000000000000000000000000000000098
:1048200000FE0000FE0100FE0100FE00000000008E
:10483000000000FE0000FE0100FE0100FE0000007E
:104840000000000000000000000000000000000068
:104850000000000000000000000080C70380C7F3D4
:1048600080F7FFE0FFFFFEFF0FFEDF039EC7038020
:10487000C7F380F7FFE0FFFFFEFF0FFEDF039EC7D9
:104880000380C703000000000000000000000000DB
:10489000000000000000000000000000F0030EF81F
:1048A0000F3EFC1F7EFE1FFE3E3EF8FFFFFFFFFF98
:1048B000FF1E78F07EF8FF7CF07F78E03F60C00F4D
:1048C00000000000000000000000000000000000E8
:1048D0000000000000F00300FC0F00FE1F0006189F
:1048E00000061800FE1FC0FC0FF0F0033C00000F94
:1048F00000E00300F800003E00800F00E0811F7818
:10490000E07F1EF0FF0630C00030C000F0FF000066
:104910000000800F00E03F00F07FF0F97FFC7FF89F
:10492000FC1FF0FE3FF01E7FF01EFFF9FEFFFFFCB4
:10493000E37FFCC13FF0E01F00F03F00E07F00E0BC
:10494000F8000078000010000000000000FE0000E9
:10495000FE0100FE0100FE0000000000000000005B
:104960000000000000000000000000000000000047
:104970000000000000000000000000000000000037
:1049800000000000000000000000000000F80F80A0
:10499000FF7FE0FFFFF8FFFFFC03E01E00000200C6
:1049A0000000000000000000000000000000000007
:1049B00000000000000000000000000000000000F7
:1049C00000000200001E0000FC01E0F8FFFFE0FF15
:1049D000FF80FF7F00F80F000000000000000000D3
:1049E00000000000000000000000000000000000C7
:1049F00000000000000000000000000000000000B7
:104A000000700000700600600F00FE0300FE03004F
:104A1000600F007006007000000000000000000041
:104A20000000000000000000000000000000000086
:104A30000000000000000000000000780000780086
:104A4000007800007800007800E0FF1FE0FF1FE022
:104A5000FF1FE0FF1F00780000780000780000785A
:104A600000007800000000000000000000000000CE
:104A70000000000000000000000000F00000F00056
:104A800000F00000F0000000000000000000000046
:104A90000000000000000000000000000000000016
:104AA0000000000000000000000000000000000006
:104AB000000000000000C00300C00300C00300C0ED
:104AC0000300C00300C00300C0030000000000009A
:104AD00000000000000000000000000000000000D6
:104AE00000000000000000000000000000000000C6
:104AF000000000000000F00000F00000F00000F0F6
:104B000000000000000000000000000000000000A5
:104B10000000000000000000000000000000000095
:104B2000000000000000000000000000E00080FF26
:104B300000FEFFF0FF1FFEFF00FE03000E0000005E
:104B40000000000000000000000000000000000065
:104B50000000000000000000000000000000000055
:104B600000000000000000000080FF03F0FF1FF8BD
:104B7000FF3FFCFF7F7E00FC1E00F01E00F01E00C9
:104B8000F07E00FCFCFF7FF8FF3FF0FF1F80FF037B
:104B90000000000000000000000000000000000015
:104BA0000000000000000000C00300E00100E00180
:104BB00000F00000780000FCFFFFFEFFFFFEFFFF9B
:104BC000FEFFFF00000000000000000000000000E9
:104BD00000000000000000000000000000000000D5
:104BE00000E000C0F800F8FC00FCFC00FF3E80FF85
:104BF0001EC0FF1EE0F31EF0F13EFCF0FC7FF0FC57
:104C00003FF0F81FF0E003F000000000000000009B
:104C100000000000000000000000000000C00006CE
:104C2000F0001EFC007EFC007E3E00F81E3CF01EE4
:104C30003CF01E3CF03E7EF8FCFF7FFCFF7FF8E777
:104C40003FE0C10F00000000000000000000000075
:104C500000000000000000000000C00700E00700A6
:104C6000F80700FE07009F07C08F07F08307F88052
:104C700007FEFFFFFEFFFFFEFFFFFEFFFF008007B6
:104C8000008007000000000000000000000000009D
:104C90000000000000003806F03F1EFE3F7EFE1FB1
:104CA0007EFE0FF81E0EF01E0FF01E0FF01E1FF8F6
:104CB0001EFE7F1EFE3F1EFC1F00F00700000000CE
:104CC00000000000000000000000000000000000E4
:104CD0000080FF03E0FF1FF8FF3FFCFF7F7C3CF8F4
:104CE0001E1EF01E1EF01E1EF03E3EF87EFC7F7C57
:104CF000FC7F78F83F60E00F00000000000000003B
:104D0000000000000000000000000000001E000085
:104D10001E00001E00F81E80FF1EF0FF1EFCFF1E7E
:104D2000FF07DE7F00FE0F00FE0300FE00003E00D6
:104D3000001E000000000000000000000000000055
:104D4000000000000000000000F0810FF8E73FFCC9
:104D5000F77FFCFF7F3E7EF81E3CF01E3CF01E3CC1
:104D6000F03E7EF8FCFF7FFCFF7FF8E73FF0810F0D
:104D70000000000000000000000000000000000033
:104D80000000000000E00F0CF83F3CFC7F7CFC7F43
:104D9000FC3EF8F81EF0F01EF0F01EF0F03E787CBD
:104DA000FCFF7FF8FF3FF0FF0F80FF0300000000D3
:104DB00000000000000000000000000000000000F3
:104DC000000000000000008007F08007F08007F07E
:104DD0008007F0000000000000000000000000005C
:104DE00000000000000000000000000000000000C3
:104DF00000000000000000000000000000000000B3
:104E00008007F08007F08007F08007F000000000C6
:104E10000000000000000000000000000000000092
:104E20000000000000000000000000000000000082
:104E3000000000000000000000007C0000FE0000F8
:104E4000FE0000FF0100EF0180EF0380C70380C771
:104E500003C08307C08307E0030FE0010FF0011FC9
:104E60000000000000000000000000000000000042
:104E7000000000000080C70380C70380C70380C70D
:104E80000380C70380C70380C70380C70380C703AD
:104E900080C70380C70380C70380C70300000000EA
:104EA0000000000000000000000000000000000002
:104EB00000F0011FE0010FE0030FC08307C083076C
:104EC000C0C70380C70380EF0300EF0100FF0100AC
:104ED000FE0000FE00007C0000000000000000005A
:104EE00000000000000000000000000000C0010001
:104EF000F00100F80100FC01007E00001EC0F71E5A
:104F0000E0F71EF8F73EFCF7FCFF00FC3F00F81F3F
:104F100000E00700000000000000000000000000AA
:104F200000000000000000000000F01F00FE7F8075
:104F30001FF0E003C0F0C18FF8F83F78FC7F3CFF22
:104F4000FF3C3FF89E0FF09E07F09E07709E07788B
:104F50009E0F7E1EFFFF9EFFFF9EFFFFBC7FF0BCEB
:104F600003700000C00000F80000FF00F0FF00FE2A
:104F70007FC0FF0FF8FF07FE9F07FE83073E8007F5
:104F8000FE8307FE9F07F8FF07C0FF0700FE7F00B4
:104F9000E0FF0000FF0000F80000C000000000007B
:104FA00000000000FEFFFFFEFFFFFEFFFFFEFFFF11
:104FB0001E3CF01E3CF01E3CF01E3CF01E3CF01E61
:104FC0003CF01E3CF03E7EF8FEFFFFFCFF7FF8E762
:104FD0003FF0C10F000000000000000000000000D2
:104FE00000FF01E0FF0FF0FF1FF8FF3FFC007E3CD9
:104FF00000781E00F01E00F01E00F01E00F03E00C3
:10500000F87C007EFC817FF8813FF0000FC0000338
:10501000000000000000000000000000FEFFFFFE96
:10502000FFFFFEFFFFFEFFFF1E00F01E00F01E0050
:10503000F01E00F01E00F01E00F03E00F8FC007EA6
:10504000FCFF3FF8FF3FE0FF0F00FF010000000002
:105050000000000000000000FEFFFFFEFFFFFEFF5B
:10506000FFFEFFFF1E3CF01E3CF01E3CF01E3CF01D
:105070001E3CF01E3CF01E3CF01E3CF01E3CF01EA0
:1050800000F0000000000000000000000000000030
:1050900000000000FEFFFFFEFFFFFEFFFFFEFFFF20
:1050A0001E3C001E3C001E3C001E3C001E3C001E20
:1050B0003C001E3C001E3C001E00000000000000E2
:1050C0000000000000000000000000000000FF01E0
:1050D000C0FF07F0FF1FF8FF3FFC017F7C007C3E14
:1050E00000781E00F01E00F01E00F01EF0F01EF012
:1050F000F03EF0F8FCF078FCF17FF8F13FF0F03F83
:10510000C0F01F000000000000000000FEFFFFFED6
:10511000FFFFFEFFFFFEFFFF003C00003C00003CE5
:1051200000003C00003C00003C00003C00FEFFFF93
:10513000FEFFFFFEFFFFFEFFFF000000000000007B
:10514000000000000000000000000000000000005F
:1051500000000000000000000000FEFFFFFEFFFF57
:10516000FEFFFFFEFFFF0000000000000000000047
:10517000000000000000000000000000000000002F
:105180000000000E00003E00007F0000FF0000F85D
:105190000000F00000F00000F8FEFF7FFEFF7FFE41
:1051A000FF3FFEFF0F0000000000000000000000B5
:1051B00000000000000000000000000000000000EF
:1051C000FEFFFFFEFFFFFEFFFFFEFFFF00FC0000F3
:1051D0007E00003F00C03F00E0FF00F0FF03F8F951
:1051E0001F7EC07F3E00FF1E00FC0E00F00200C0CC
:1051F000000000000000000000000000FEFFFFFEB5
:10520000FFFFFEFFFFFEFFFF0000F00000F00000C8
:10521000F00000F00000F00000F00000F00000F0EE
:105220000000F0000000000000000000000000008E
:105230000000FEFFFFFEFFFFFEFFFFFEFFFFFE0080
:1052400000FE7F00FEFF3FF0FFFF00F8FF0000FCC4
:1052500000F8FFE0FFFFFEFF1FFE3F00FE0000FE24
:10526000FFFFFEFFFFFEFFFFFEFFFF00000000004C
:1052700000000000FEFFFFFEFFFFFEFFFFFEFFFF3E
:10528000FC0300F00F00C07F0000FE0100F80700E3
:10529000E01F00807FFEFFFFFEFFFFFEFFFFFEFF1F
:1052A000FF00000000000000000000000000FF01FF
:1052B000E0FF0FF0FF1FF8FF3FFC017F7C007C3E0A
:1052C00000F81E00F01E00F01E00F01E00F03E0070
:1052D000F87C007CFC017FF8FF3FF0FF1FE0FF0F30
:1052E00000FF01000000000000000000FEFFFFFEC4
:1052F000FFFFFEFFFFFEFFFF1E78001E78001E78F6
:10530000001E78001E78001E78003E7C00FC3F00E6
:10531000FC3F00F81F00E007000000000000000054
:10532000000000000000FF01E0FF0FF0FF1FF8FF8A
:105330003FFC017F7C007C3E00F81E00F01E00F662
:105340001E00F71E00FE3E00FE7C007CFC017FF884
:10535000FFFFF0FFFFE0FFEF00FFC10000C0000013
:1053600000000000FEFFFFFEFFFFFEFFFFFEFFFF4D
:105370001E3C001E3C001E3C001E7C001EFC001E4D
:10538000FC033EFE0FFEDF3FFC1FFFF80FFCF003A7
:10539000F80000E0000080000000000000E00307CB
:1053A000F8071FFC0F3FFC1F7F3E1E7C1E3EF81EB1
:1053B0003CF01E3CF01E7CF01E78F03EF8F8FCF04D
:1053C0007FFCF07FF8E03FE0800F0000000000006D
:1053D0000000000000000000001E00001E00001E73
:1053E00000001E00001E0000FEFFFFFEFFFFFEFF8C
:1053F000FFFEFFFF1E00001E00001E00001E00003A
:105400001E0000000000000000000000000000007E
:105410000000000000000000FEFF07FEFF1FFEFF6F
:105420003FFEFF7F00007C0000F80000F00000F06D
:105430000000F00000F80000FCFEFF7FFEFF3FFED2
:10544000FF1FFEFF07000000000000000000060034
:10545000003E0000FE0300FE1F00FCFF01C0FF0F26
:1054600000FEFF00E0FF0000FF0000FF00E0FF0083
:10547000FEFFC0FF0FFCFF01FE1F00FE03003E0009
:10548000000600000000000000000E0000FE070003
:10549000FEFF01FEFF7FF0FFFF00F8FF0000FC00B1
:1054A000E0FF00FFFFF8FF1FFEFF00FE07003E00C9
:1054B00000FE0700FEFF00FCFF1F80FFFF00E0FF73
:1054C0000000FC00F8FF0000800200E00E00F83E43
:1054D00000FC7E00FFFEC13FF8F70FE0FF0380FFF6
:1054E0000180FF01E0FF03F8F70FFEC13F7E00FFE0
:1054F0003E00FC0E00F80200E0000080000000000A
:1055000000000200000E00003E0000FE0000FE0150
:1055100000F80700E01F0080FFFF00FEFF00FEFF15
:1055200080FFFFE01F00F80700FE0100FE00003EC4
:1055300000000E000002000000000000000000005B
:10554000F81E00FC1E00FF1E80FF1EE0FF1EF0F391
:105550001EFCF11EFEF09E3FF0DE1FF0FE07F0FE87
:1055600003F0FE00F07E00F01E00F00000000000DE
:10557000000000000000000000000000000000002B
:10558000FEFFFFFEFFFFFEFFFFFEFFFF1E00001EEF
:1055900000001E00000000000000000000000000ED
:1055A00000000000000000000000000000000000FB
:1055B0000000000000000E0000FE0300FEFF00F0EF
:1055C000FF1F00FEFF0080FF0000E0000000000061
:1055D00000000000000000000000000000000000CB
:1055E00000000000000000000000000000000000BB
:1055F00000001E00001E00001E0000FEFFFFFEFF58
:10560000FFFEFFFFFEFFFF000000000000000000A3
:10561000000000000000000000000000000000008A
:10562000000000000000000000000000000000007A
:1056300000001800001F00E01F00FE1F00FE0F000A
:10564000FE01003E0000FE0100FE0F00FE1F00E014
:105650001F00001F000018000000000000000000F4
:10566000000000000000000000000000000000003A
:10567000000000000000000000000000000000002A
:10568000000000000000000000000000000000001A
:10569000000000000000000000000000000000000A
:1056A0000000000000000000000200000600000EE4
:1056B00000001E00001C00001000000000000000A0
:1056C00000000000000000000000000000000000DA
:1056D00000000000000000000000000000000000CA
:1056E0000000000000000C3E008E7F009FFF80DF66
:1056F000FF80CFF380C7F380C7F180E77980FF3F59
:1057000000FFFF00FFFF00FEFF0000800000000020
:105710000000000000000000000000000000000089
:1057200000000000FEFFFFFEFFFFFEFFFFFEFFFF89
:10573000000E3C0007708007F08007F0800FF880B3
:10574000FFFF00FF7F00FE3F00F80F000000000099
:105750000000000000000000000000000000F00752
:1057600000FC1F00FE7F00FF7F800FF88007F080A5
:1057700007F08007F0800FF8801F7E001F7E000E6C
:105780003C00080C000000000000000000000000C9
:1057900000000000000000000000F80700FE3F00CD
:1057A000FF7F80FFFF800FF88007F08007F0000781
:1057B00070000E38FEFFFFFEFFFFFEFFFFFEFFFF43
:1057C00000000000000000000000000000000000D9
:1057D000000000000000F00700FC1F00FE7F00FF3B
:1057E0007F80CFF980C7F180C7F180C7F180CFF902
:1057F00000FF7D00FE7D00FC3900F0090000000084
:105800000000000000000000000000000000800711
:1058100000800700F8FFFFFCFFFFFEFFFFFEFFFF19
:105820009E07009E07009E07001E0000000000006B
:105830000000000000000000000000000000000068
:105840000000000000000000000000000000F80759
:1058500000FE3F00FF7F80FFFF800FF88007F08091
:1058600007F0000770001E3C80FFFF80FFFF80FFF5
:10587000FF80FFFF000000000000000000000000AB
:10588000000000000000000000000000FEFFFFFE1E
:10589000FFFFFEFFFFFEFFFF000E00000700800776
:1058A00000800F0080FFFF80FFFF00FFFF00FCFF74
:1058B00000000000000000000000000000000000E8
:1058C00000000000009EFFFF9EFFFF9EFFFF9EFF67
:1058D000FF000000000000000000000000000000C9
:1058E00000000000000000000000000000000000B8
:1058F00000000000000000000000000000000000A8
:10590000009EFFFF9EFFFF9EFFFF9EFFFF00000027
:105910000000000000000000000000000000000087
:105920000000000000000000000000000000000077
:105930000000000000000000000000000000000067
:10594000FEFFFFFEFFFFFEFFFFFEFFFF00E0030084
:10595000F80100FE0700FF1F80CFFF8007FE8001D7
:10596000F88000C0000000000000000000000000FF
:10597000000000000000000000FEFFFFFEFFFFFE31
:10598000FFFFFEFFFF00000000000000000000001D
:105990000000000000000000000000000000000007
:1059A00000000000000000000000000000000000F7
:1059B000000000000080FFFF80FFFF80FFFF80FFEE
:1059C000FF000E00000700800700800F0080FFFF2F
:1059D00080FFFF00FFFF00FEFF000E0000070080B9
:1059E0000700800F0080FFFF80FFFF00FFFF000027
:1059F0000000000080FFFF80FFFF80FFFF80FFFFAF
:105A0000000E00000700800700800F0080FFFF806D
:105A1000FFFF00FFFF00FEFF00000000000000008D
:105A20000000000000000000000000000000F0077F
:105A300000FC1F00FE3F00FF7F801FFC800FF880EE
:105A400007F08007F0800FF8801F7C00FF7F00FECA
:105A50003F00FC1F00F007000000000000000000F5
:105A600000000000000000000000000080FFFF8038
:105A7000FFFF80FFFF80FFFF000E3C0007708007E4
:105A8000F08007F0800FF880FFFF00FF7F00FE3FEF
:105A900000F8070000000000000000000000000007
:105AA000000000000000F80700FE3F00FF7F80FFBD
:105AB000FF801FF88007F08007F0000770000E3CA1
:105AC00080FFFF80FFFF80FFFF80FFFF00000000DE
:105AD00000000000000000000000000000000000C6
