:020000040800F2
:100000001804002001010008D5080008CD080008E8
:10001000D108000889010008C10A0008000000009A
:10002000000000000000000000000000DD080008E3
:100030008D01000800000000D9080008E108000850
:100040001B0100081B0100081B0100081B01000820
:100050001B0100081B0100081B0100081B01000810
:100060001B0100081B0100081B0100081B01000800
:100070001B0100081B0100081B0100081B010008F0
:100080001B0100081B0100081B0100081B010008E0
:100090001B0100081B0100081B0100081B010008D0
:1000A0001B0100081B0100081B0100081B010008C0
:1000B0001B0100081B0100081B0100081B010008B0
:1000C0001B0100081B0100081B0100081B010008A0
:1000D0001B010008A90A00081B0100081B010008F9
:1000E0001B0100081B0100081B010008DFF80CD0F1
:1000F00000F032F800480047C50A00081804002044
:100100000648804706480047FEE7FEE7FEE7FEE7B1
:10011000FEE7FEE7FEE7FEE7FEE7FEE7E50800088C
:10012000ED00000840EA01039B0703D009E008C97D
:10013000121F08C0042AFAD203E011F8013B00F8AC
:10014000013B521EF9D27047421C10F8011B0029D6
:10015000FBD1801A704700001CB50948009009487F
:1001600001900546009C06E0E06840F0010394E839
:10017000070098471034AC42F6D3FFF7BBFF0000EE
:10018000000C0008200C0008FEE70000704700008B
:1001900040F21000C2F200000068704740F2000018
:1001A00040F21001C2F20000C2F2000100780A68B9
:1001B000104408607047000080B542F20000C4F2AD
:1001C0000200016841F010010160032000F07AF89C
:1001D0000F2000F005F800F027F8002080BD000097
:1001E00070B540F20006C2F2000640F20801327813
:1001F000C2F200014FF47A730968B3FBF2F20446CD
:10020000B1FBF2F1084600F04BFB0F2C4FF001055B
:1002100008D838B94FF0FF3021460022002500F001
:1002200025F87460284670BD82B041F21800C4F20F
:1002300002000168022241F001010160016801F041
:10024000010101910199416841F08051416040688C
:1002500000F08050009000980420C4F20100016872
:1002600062F31A61016002B07047000010B54EF6EB
:100270000C5CCEF2000CDCF80030C3F3022E8EF0E2
:100280000704042C28BF0424BEF103034FF0FF3EF3
:100290000EFA04F438BF0023A14399400EFA03F389
:1002A0009A43114300F00F0200F160430901043A40
:1002B00003F564436244002848BF02F10C0319703F
:1002C00010BD00004EF60C51CEF200010A684FF648
:1002D000FF031A4060F30A2242F0806040F0FD7094
:1002E00008607047002804BF012070472DE9F043E3
:1002F00081B042F20008C4F202080446D8F80000B7
:100300000D4600F0070081420CD9D8F8000020F01B
:1003100007002843C8F80000D8F8000000F00700E4
:10032000A8426CD1206841F204098107C4F2020995
:1003300017D5410705D5D9F8001041F4E061C9F897
:100340000010010705D5D9F8001041F46051C9F833
:100350000010D9F80010A26821F0F0011143C9F88B
:100360000010C00742D1D8F8000000F00700854215
:100370000CD2D8F8000020F007002843C8F800008D
:10038000D8F8000000F00700A84238D120684107E3
:1003900007D5D9F80010E26821F4E0611143C9F8EB
:1003A0000010000708D5D9F80000216920F460503A
:1003B00040EAC100C9F80000D9F8002002F00C00A2
:1003C000082841F20020C0F27A004DD140F6A63351
:1003D000C2F38341C0F60003595CD20338D440F61F
:1003E0000010C0F23D0048433EE000BF606859F88D
:1003F000041C022808D0012826D1890306D4012034
:1004000001B0BDE8F08300BF8901F8D5D9F800102C
:1004100021F003010843C9F80000FFF7B9FE0646C2
:1004200041F28837D9F80000616800F00C00B0EBA9
:10043000810F98D0FFF7ACFE801BB842F2D90320A1
:1004400001B0BDE8F08300BF8907D8D5DEE700BF63
:10045000D9F8002040F6A433C2F34042C0F60003AE
:100460009A5C4843B0FBF2F0D9F8001040F69432A1
:10047000C1F30311C0F60002515C40F2080220FAF9
:1004800001F140F20400C2F200000068C2F2000272
:100490001160FFF7A5FE002001B0BDE8F083000069
:1004A000002804BF012070472DE9F04182B00446C6
:1004B000007841F20006C007C4F202060CD0706852
:1004C00000F00C00042840F081803068800303D5E0
:1004D0006068002800F04681207880071BD570688E
:1004E00010F00C0F09D0706800F00C00082840F0E4
:1004F00087807068C00300F183803068800703D56F
:100500002069012840F02E813068616920F0F800F0
:1005100040EAC10030602078000713D420784007FB
:100520002CD4E569002D00F01881706800F00C00F3
:10053000082840F0A780012D40F00481012002B07E
:10054000BDE8F081A069002800F084800020C4F29A
:1005500042200121C0F88014FFF71AFE054600BFB3
:10056000706A800700F1B280FFF712FE401B02287C
:10057000F6D9032002B0BDE8F08100BFF0695FEA60
:10058000C00808D4F06940F08050F061F06900F0D4
:1005900080500090009847F20007C4F200073868C6
:1005A000C00549D4386840F480703860FFF7F0FD2A
:1005B000054600BF3868C0053ED4FFF7E9FD401B83
:1005C0006428F7D9032002B0BDE8F081706800F01C
:1005D0000C00082803D17068C0033FF576AF61684E
:1005E0003068002900F00C81B1F5A02F00F00081E7
:1005F000B1F5803F40F01A8140F480301CE100BF2B
:100600002069002840F20000C4F2422000F08880F7
:1006100001210160FFF7BCFD054600BF306880077F
:100620003FF572AFFFF7B4FD401B0228F6D9032057
:1006300002B0BDE8F08100BFE168306A002900F037
:100640009D80052900F09280012940F0AF8040F0A4
:100650000100B1E00020C4F242200021C0F8801463
:10066000FFF796FD054600BF706A80077FF556AF1D
:10067000FFF78EFD401B0228F6D9032002B0BDE82B
:10068000F08100BF0027C4F2422700203866FFF740
:100690007FFD022D05460DD13068800140F1DE80DE
:1006A000FFF776FD401B02284FF00300F4D902B09B
:1006B000BDE8F081306880014FD5FFF769FD401B30
:1006C00002284FF00300F5D9F1E700BF40F208001F
:1006D000C2F20000006844F6D351C1F26201A0FBEF
:1006E0000101480A019000BF00BF0198411E002887
:1006F00001913FF413AF00BF0198411E0028019102
:100700003FF40CAF00BF0198411E002801913FF457
:1007100005AF00BF0198411E00280191E4D1FDE61C
:1007200000210160FFF734FD054600BF30688007F7
:100730007FF5F1AEFFF72CFD401B02284FF00300C0
:10074000F4D9B4E77068216A00F480328A4209D192
:10075000616A00F47010884204D1002002B0BDE844
:10076000F08100BF012002B0BDE8F08140F004003C
:100770003062306A40F001001EE000BF20F001004E
:100780003062306A20F004003062FFF701FD054658
:1007900041F28837306A800720D5FFF7F9FC401B0B
:1007A000B8424FF00300F5D981E700BF20F0010007
:1007B0003062306A20F004003062FFF7E9FC054641
:1007C00041F28837306A800708D4FFF7E1FC401B0C
:1007D000B842F7D9032002B0BDE8F081B8F1000FAC
:1007E0003FF59FAEF06920F08050F06199E600BFC0
:1007F00040F480203060306840F480301CE000BF5E
:1008000020F480303060306820F480203060FFF7C2
:10081000BFFC0546306880037FF55EAEFFF7B8FC8D
:10082000401B64284FF00300F4D940E720F48030E7
:100830003060306820F480203060FFF7A9FC054666
:10084000306880033FF548AEFFF7A2FC401B6428E8
:10085000F6D9032002B0BDE8F08100BF206AB0F5F0
:10086000803F05D17168A26821F4003111437160A5
:100870007168626A21F474111143084370600120A9
:100880003866FFF785FC0446306880013FF565AFA8
:10089000FFF77EFC001B02284FF00300F4D906E7A7
:1008A000411E0020B0EB116F1CBF012070474EF2BB
:1008B0001002CEF2000251604EF62351CEF200013A
:1008C000F0230B700721906011607047FEE7000075
:1008D000FEE70000FEE700007047000070470000E0
:1008E000FFF75CBC7047000041F21800C4F2020040
:1008F000016844F204021143016040F60400C4F2AE
:100900000100016842F22C0221F47F61016001685C
:1009100041F49661016043F60C00C4F2010040F21C
:10092000712140F8041C0168114301604EF204106B
:10093000CEF20000202101607047000080B582B037
:100940008DF807000DF10700012100F003F802B057
:1009500080BD00000246002818BF01200B46002978
:1009600018BF01231840012818BF7047B0B543F6DF
:100970000003C4F20103042901F0030C48D2002152
:10098000BCF1000F34D01D682D0609D41D682D065A
:100990005CBF1D685FEA056502D41D682D06F2D5AF
:1009A000555CBCF1010F5D6022D01D682D0609D495
:1009B0001D682D065CBF1D685FEA056502D41D68D1
:1009C0002D06F2D511444A78BCF1020F5A600FD0BF
:1009D0001A68120609D41A6812065CBF1A685FEA20
:1009E000026202D41A681206F2D58978596000BFF3
:1009F0001968490609D4196849065CBF19685FEA95
:100A0000416102D419684906F2D5BDE8B04070478B
:100A100021F0030E002104E0145D043171455C6097
:100A2000AED01C68240606D41C6824065CBF1C6873
:100A30005FEA046434D5545C5C6041F001041D68D5
:100A40002D0609D41D682D065CBF1D685FEA05658B
:100A500002D41D682D06F2D5145D5C6041F00204DD
:100A60001D682D060AD41D682D065CBF1D685FEA4F
:100A7000056503D41D682D06F2D500BF145D5C60CA
:100A800041F003041D682D06C6D41D682D065CBF09
:100A90001D685FEA0565BFD41D682D06F2D5BBE76A
:100AA0001C682406BDD5C6E743F60000C4F2010069
:100AB0000168890658BF70474068C0B2FFF73EBF63
:100AC000FEE7000098B0FFF777FB00240120CDE996
:100AD0000644CDE90444019005904FF4E0104FF432
:100AE000803102250A9001A8CDE90214CDE9085110
:100AF000FFF7D6FC20B1EFF3108072B6FEE700BF1F
:100B00000F20CDE913054FF48060CDE9160413A83A
:100B100002211594FFF7E6FB20B1EFF3108072B6C7
:100B2000FEE700BF41F21800C4F20200016841F084
:100B300020010160016801F0200101910199016823
:100B400041F004010160006800F004000190019888
:100B5000FFF7CAFE40F6B83101ACC0F600012046EE
:100B60004822FFF7DFFA2046FFF7EEFA81B220466F
:100B7000FFF7F0FEFEE702E008C8121F08C1002AD6
:100B8000FAD170477047002001E001C1121F002A0E
:100B9000FBD17047000000000000000001020304C8
:100BA00006070809010202030405060708090A0BE3
:100BB0000C0D0E0F101000000D0A3D3D3D3D3D2077
:100BC00054455354204D4F44554C45203120285313
:100BD000563129203D3D3D3D3D0D0A486179206754
:100BE0006F2031207068696D20626174206B7920FC
:100BF0007472656E2062616E207068696D3A2000C3
:100C0000200C00080000002010000000760B0008F7
:100C1000300C00081000002008040000860B0008BB
:100C2000010000001000000000127A000000000027
:04000005080000ED02
:00000001FF
